{"abi":[{"type":"constructor","inputs":[{"name":"_liftUnits","type":"address","internalType":"contract IERC1155"},{"name":"_repaymentEscrow","type":"address","internalType":"contract IRepaymentEscrow"}],"stateMutability":"nonpayable"},{"type":"function","name":"AUDITOR_ROLE","inputs":[],"outputs":[{"name":"","type":"bytes32","internalType":"bytes32"}],"stateMutability":"view"},{"type":"function","name":"DEFAULT_ADMIN_ROLE","inputs":[],"outputs":[{"name":"","type":"bytes32","internalType":"bytes32"}],"stateMutability":"view"},{"type":"function","name":"EXTENSION_TYPEHASH","inputs":[],"outputs":[{"name":"","type":"bytes32","internalType":"bytes32"}],"stateMutability":"view"},{"type":"function","name":"PROJECT_ADMIN_ROLE","inputs":[],"outputs":[{"name":"","type":"bytes32","internalType":"bytes32"}],"stateMutability":"view"},{"type":"function","name":"SALES_AGENT_ROLE","inputs":[],"outputs":[{"name":"","type":"bytes32","internalType":"bytes32"}],"stateMutability":"view"},{"type":"function","name":"assignToFunder","inputs":[{"name":"projectId","type":"uint256","internalType":"uint256"}],"outputs":[],"stateMutability":"nonpayable"},{"type":"function","name":"eip712Domain","inputs":[],"outputs":[{"name":"fields","type":"bytes1","internalType":"bytes1"},{"name":"name","type":"string","internalType":"string"},{"name":"version","type":"string","internalType":"string"},{"name":"chainId","type":"uint256","internalType":"uint256"},{"name":"verifyingContract","type":"address","internalType":"address"},{"name":"salt","type":"bytes32","internalType":"bytes32"},{"name":"extensions","type":"uint256[]","internalType":"uint256[]"}],"stateMutability":"view"},{"type":"function","name":"expiryConfigs","inputs":[{"name":"","type":"uint256","internalType":"uint256"}],"outputs":[{"name":"funderUnitWallet","type":"address","internalType":"address"},{"name":"onExpiryPolicy","type":"uint8","internalType":"enum AllocationEscrow.ExpiryPolicy"}],"stateMutability":"view"},{"type":"function","name":"extendMarketWindow","inputs":[{"name":"ext","type":"tuple","internalType":"struct AllocationEscrow.Extension","components":[{"name":"projectId","type":"uint256","internalType":"uint256"},{"name":"snapshotRoot","type":"bytes32","internalType":"bytes32"},{"name":"reservedUnits","type":"uint256","internalType":"uint256"},{"name":"newClosesAt","type":"uint256","internalType":"uint256"},{"name":"nonce","type":"uint256","internalType":"uint256"}]},{"name":"auditorSig","type":"bytes","internalType":"bytes"}],"outputs":[],"stateMutability":"nonpayable"},{"type":"function","name":"getMarketWindow","inputs":[{"name":"projectId","type":"uint256","internalType":"uint256"}],"outputs":[{"name":"","type":"tuple","internalType":"struct AllocationEscrow.MarketAllocationWindow","components":[{"name":"opensAt","type":"uint64","internalType":"uint64"},{"name":"closesAt","type":"uint64","internalType":"uint64"},{"name":"maxTotalDuration","type":"uint64","internalType":"uint64"},{"name":"extendedOnce","type":"bool","internalType":"bool"},{"name":"closed","type":"bool","internalType":"bool"},{"name":"snapshotRoot","type":"bytes32","internalType":"bytes32"},{"name":"reservedUnits","type":"uint256","internalType":"uint256"}]}],"stateMutability":"view"},{"type":"function","name":"getRoleAdmin","inputs":[{"name":"role","type":"bytes32","internalType":"bytes32"}],"outputs":[{"name":"","type":"bytes32","internalType":"bytes32"}],"stateMutability":"view"},{"type":"function","name":"grantRole","inputs":[{"name":"role","type":"bytes32","internalType":"bytes32"},{"name":"account","type":"address","internalType":"address"}],"outputs":[],"stateMutability":"nonpayable"},{"type":"function","name":"hasRole","inputs":[{"name":"role","type":"bytes32","internalType":"bytes32"},{"name":"account","type":"address","internalType":"address"}],"outputs":[{"name":"","type":"bool","internalType":"bool"}],"stateMutability":"view"},{"type":"function","name":"isWindowActive","inputs":[{"name":"projectId","type":"uint256","internalType":"uint256"}],"outputs":[{"name":"","type":"bool","internalType":"bool"}],"stateMutability":"view"},{"type":"function","name":"liftUnits","inputs":[],"outputs":[{"name":"","type":"address","internalType":"contract IERC1155"}],"stateMutability":"view"},{"type":"function","name":"marketWindows","inputs":[{"name":"","type":"uint256","internalType":"uint256"}],"outputs":[{"name":"opensAt","type":"uint64","internalType":"uint64"},{"name":"closesAt","type":"uint64","internalType":"uint64"},{"name":"maxTotalDuration","type":"uint64","internalType":"uint64"},{"name":"extendedOnce","type":"bool","internalType":"bool"},{"name":"closed","type":"bool","internalType":"bool"},{"name":"snapshotRoot","type":"bytes32","internalType":"bytes32"},{"name":"reservedUnits","type":"uint256","internalType":"uint256"}],"stateMutability":"view"},{"type":"function","name":"nonces","inputs":[{"name":"","type":"uint256","internalType":"uint256"}],"outputs":[{"name":"","type":"uint256","internalType":"uint256"}],"stateMutability":"view"},{"type":"function","name":"onERC1155BatchReceived","inputs":[{"name":"","type":"address","internalType":"address"},{"name":"","type":"address","internalType":"address"},{"name":"","type":"uint256[]","internalType":"uint256[]"},{"name":"","type":"uint256[]","internalType":"uint256[]"},{"name":"","type":"bytes","internalType":"bytes"}],"outputs":[{"name":"","type":"bytes4","internalType":"bytes4"}],"stateMutability":"pure"},{"type":"function","name":"onERC1155Received","inputs":[{"name":"","type":"address","internalType":"address"},{"name":"","type":"address","internalType":"address"},{"name":"","type":"uint256","internalType":"uint256"},{"name":"","type":"uint256","internalType":"uint256"},{"name":"","type":"bytes","internalType":"bytes"}],"outputs":[{"name":"","type":"bytes4","internalType":"bytes4"}],"stateMutability":"pure"},{"type":"function","name":"openMarketWindow","inputs":[{"name":"projectId","type":"uint256","internalType":"uint256"},{"name":"duration","type":"uint64","internalType":"uint64"},{"name":"maxTotalDuration","type":"uint64","internalType":"uint64"},{"name":"funderUnitWallet","type":"address","internalType":"address"},{"name":"onExpiryPolicy","type":"uint8","internalType":"enum AllocationEscrow.ExpiryPolicy"}],"outputs":[],"stateMutability":"nonpayable"},{"type":"function","name":"renounceRole","inputs":[{"name":"role","type":"bytes32","internalType":"bytes32"},{"name":"callerConfirmation","type":"address","internalType":"address"}],"outputs":[],"stateMutability":"nonpayable"},{"type":"function","name":"repaymentEscrow","inputs":[],"outputs":[{"name":"","type":"address","internalType":"contract IRepaymentEscrow"}],"stateMutability":"view"},{"type":"function","name":"revokeRole","inputs":[{"name":"role","type":"bytes32","internalType":"bytes32"},{"name":"account","type":"address","internalType":"address"}],"outputs":[],"stateMutability":"nonpayable"},{"type":"function","name":"sellToBeneficiary","inputs":[{"name":"projectId","type":"uint256","internalType":"uint256"},{"name":"beneficiary","type":"address","internalType":"address"},{"name":"tokenIds","type":"uint256[]","internalType":"uint256[]"},{"name":"amounts","type":"uint256[]","internalType":"uint256[]"},{"name":"considerationRef","type":"bytes32","internalType":"bytes32"},{"name":"proceeds","type":"uint256","internalType":"uint256"}],"outputs":[],"stateMutability":"nonpayable"},{"type":"function","name":"supportsInterface","inputs":[{"name":"interfaceId","type":"bytes4","internalType":"bytes4"}],"outputs":[{"name":"","type":"bool","internalType":"bool"}],"stateMutability":"view"},{"type":"event","name":"AssignedToFunder","inputs":[{"name":"projectId","type":"uint256","indexed":true,"internalType":"uint256"},{"name":"tokenIds","type":"uint256[]","indexed":false,"internalType":"uint256[]"},{"name":"amounts","type":"uint256[]","indexed":false,"internalType":"uint256[]"}],"anonymous":false},{"type":"event","name":"EIP712DomainChanged","inputs":[],"anonymous":false},{"type":"event","name":"MarketWindowExtended","inputs":[{"name":"projectId","type":"uint256","indexed":true,"internalType":"uint256"},{"name":"newClosesAt","type":"uint64","indexed":false,"internalType":"uint64"},{"name":"snapshotRoot","type":"bytes32","indexed":false,"internalType":"bytes32"},{"name":"reservedUnits","type":"uint256","indexed":false,"internalType":"uint256"}],"anonymous":false},{"type":"event","name":"MarketWindowOpened","inputs":[{"name":"projectId","type":"uint256","indexed":true,"internalType":"uint256"},{"name":"closesAt","type":"uint64","indexed":false,"internalType":"uint64"}],"anonymous":false},{"type":"event","name":"RoleAdminChanged","inputs":[{"name":"role","type":"bytes32","indexed":true,"internalType":"bytes32"},{"name":"previousAdminRole","type":"bytes32","indexed":true,"internalType":"bytes32"},{"name":"newAdminRole","type":"bytes32","indexed":true,"internalType":"bytes32"}],"anonymous":false},{"type":"event","name":"RoleGranted","inputs":[{"name":"role","type":"bytes32","indexed":true,"internalType":"bytes32"},{"name":"account","type":"address","indexed":true,"internalType":"address"},{"name":"sender","type":"address","indexed":true,"internalType":"address"}],"anonymous":false},{"type":"event","name":"RoleRevoked","inputs":[{"name":"role","type":"bytes32","indexed":true,"internalType":"bytes32"},{"name":"account","type":"address","indexed":true,"internalType":"address"},{"name":"sender","type":"address","indexed":true,"internalType":"address"}],"anonymous":false},{"type":"event","name":"UnitsSold","inputs":[{"name":"projectId","type":"uint256","indexed":true,"internalType":"uint256"},{"name":"beneficiary","type":"address","indexed":true,"internalType":"address"},{"name":"tokenIds","type":"uint256[]","indexed":false,"internalType":"uint256[]"},{"name":"amounts","type":"uint256[]","indexed":false,"internalType":"uint256[]"},{"name":"considerationRef","type":"bytes32","indexed":false,"internalType":"bytes32"},{"name":"proceeds","type":"uint256","indexed":false,"internalType":"uint256"}],"anonymous":false},{"type":"error","name":"AccessControlBadConfirmation","inputs":[]},{"type":"error","name":"AccessControlUnauthorizedAccount","inputs":[{"name":"account","type":"address","internalType":"address"},{"name":"neededRole","type":"bytes32","internalType":"bytes32"}]},{"type":"error","name":"ECDSAInvalidSignature","inputs":[]},{"type":"error","name":"ECDSAInvalidSignatureLength","inputs":[{"name":"length","type":"uint256","internalType":"uint256"}]},{"type":"error","name":"ECDSAInvalidSignatureS","inputs":[{"name":"s","type":"bytes32","internalType":"bytes32"}]},{"type":"error","name":"InvalidShortString","inputs":[]},{"type":"error","name":"ReentrancyGuardReentrantCall","inputs":[]},{"type":"error","name":"StringTooLong","inputs":[{"name":"str","type":"string","internalType":"string"}]}],"bytecode":{"object":"0x6101a060405234801562000011575f80fd5b50604051620028333803806200283383398101604081905262000034916200029b565b604080518082018252600b81526a131a599d119bdc9dd85c9960aa1b602080830191909152825180840190935260018352603160f81b90830152906200007b825f62000151565b610120526200008c81600162000151565b61014052815160208084019190912060e052815190820120610100524660a0526200011960e05161010051604080517f8b73c3c69bb8fe3d512ecc4cf759cc79239f7b179b0ffacaa9a75d522b39400f60208201529081019290925260608201524660808201523060a08201525f9060c00160405160208183030381529060405280519060200120905090565b60805250503060c05260016003556001600160a01b0382811661016052811661018052620001485f3362000189565b505050620004b4565b5f6020835110156200017057620001688362000238565b905062000183565b816200017d848262000376565b5060ff90505b92915050565b5f8281526002602090815260408083206001600160a01b038516845290915281205460ff1662000230575f8381526002602090815260408083206001600160a01b03861684529091529020805460ff19166001179055620001e73390565b6001600160a01b0316826001600160a01b0316847f2f8788117e7eff1d82e926ec794901d17c78024a50270940304540a733656f0d60405160405180910390a450600162000183565b505f62000183565b5f80829050601f815111156200026e578260405163305a27a960e01b815260040162000265919062000442565b60405180910390fd5b80516200027b8262000490565b179392505050565b6001600160a01b038116811462000298575f80fd5b50565b5f8060408385031215620002ad575f80fd5b8251620002ba8162000283565b6020840151909250620002cd8162000283565b809150509250929050565b634e487b7160e01b5f52604160045260245ffd5b600181811c908216806200030157607f821691505b6020821081036200032057634e487b7160e01b5f52602260045260245ffd5b50919050565b601f8211156200037157805f5260205f20601f840160051c810160208510156200034d5750805b601f840160051c820191505b818110156200036e575f815560010162000359565b50505b505050565b81516001600160401b03811115620003925762000392620002d8565b620003aa81620003a38454620002ec565b8462000326565b602080601f831160018114620003e0575f8415620003c85750858301515b5f19600386901b1c1916600185901b1785556200043a565b5f85815260208120601f198616915b828110156200041057888601518255948401946001909101908401620003ef565b50858210156200042e57878501515f19600388901b60f8161c191681555b505060018460011b0185555b505050505050565b5f602080835283518060208501525f5b81811015620004705785810183015185820160400152820162000452565b505f604082860101526040601f19601f8301168501019250505092915050565b8051602080830151919081101562000320575f1960209190910360031b1b16919050565b60805160a05160c05160e05161010051610120516101405161016051610180516122fd620005365f395f81816101b301526110ad01525f81816104d101528181610bd201528181610cca015261101501525f61179b01525f61176a01525f6118d701525f6118af01525f61180a01525f61183401525f61185e01526122fd5ff3fe608060405234801561000f575f80fd5b506004361061016d575f3560e01c80635462e3f1116100d9578063a217fddf11610093578063bc197c811161006e578063bc197c811461059d578063d547741f146105d8578063ea99a0b6146105eb578063f23a6e6114610612575f80fd5b8063a217fddf146104c5578063a34d8c09146104cc578063b83d886b146104f3575f80fd5b80635462e3f114610318578063568b07301461044a5780636b0f9ae71461045d5780636e1d616e1461047057806384b0196e1461049757806391d14854146104b2575f80fd5b8063248a9ca31161012a578063248a9ca3146102545780632f2ff15d146102765780633025ad0114610289578063315f70ee146102cb57806336568abe146102de57806341c04d5e146102f1575f80fd5b806301ffc9a71461017157806309082177146101995780630dfbd3fb146101ae5780630e48d81d146101ed578063141a468c146102005780631b2764b21461022d575b5f80fd5b61018461017f366004611bfd565b610632565b60405190151581526020015b60405180910390f35b6101ac6101a7366004611c68565b610668565b005b6101d57f000000000000000000000000000000000000000000000000000000000000000081565b6040516001600160a01b039091168152602001610190565b6101ac6101fb366004611cbd565b610a86565b61021f61020e366004611cbd565b60066020525f908152604090205481565b604051908152602001610190565b61021f7f2876772a04b89b94c8c87ac69aa615c01e5a2ea27395a2c907a36aadb2f665c981565b61021f610262366004611cbd565b5f9081526002602052604090206001015490565b6101ac610284366004611cef565b610e0c565b6102bd610297366004611cbd565b60056020525f90815260409020546001600160a01b03811690600160a01b900460ff1682565b604051610190929190611d2d565b6101ac6102d9366004611da6565b610e36565b6101ac6102ec366004611cef565b61116f565b61021f7f52eafc11f6f81f86878bffd31109a0d92f37506527754f00788853ff9f63b13081565b6103e2610326366004611cbd565b6040805160e0810182525f80825260208201819052918101829052606081018290526080810182905260a0810182905260c0810191909152505f90815260046020908152604091829020825160e08101845281546001600160401b038082168352600160401b8204811694830194909452600160801b81049093169381019390935260ff600160c01b8304811615156060850152600160c81b90920490911615156080830152600181015460a08301526002015460c082015290565b60405161019091905f60e0820190506001600160401b038084511683528060208501511660208401528060408501511660408401525060608301511515606083015260808301511515608083015260a083015160a083015260c083015160c083015292915050565b6101ac610458366004611e4d565b6111a7565b61018461046b366004611cbd565b6114f9565b61021f7f59a1c48e5837ad7a7f3dcedcbe129bf3249ec4fbf651fd4f5e2600ead39fe2f581565b61049f61154c565b6040516101909796959493929190611f2b565b6101846104c0366004611cef565b61158e565b61021f5f81565b6101d57f000000000000000000000000000000000000000000000000000000000000000081565b610555610501366004611cbd565b60046020525f90815260409020805460018201546002909201546001600160401b0380831693600160401b8404821693600160801b81049092169260ff600160c01b8404811693600160c81b900416919087565b604080516001600160401b0398891681529688166020880152949096169385019390935290151560608401521515608083015260a082015260c081019190915260e001610190565b6105bf6105ab366004611f9a565b63bc197c8160e01b98975050505050505050565b6040516001600160e01b03199091168152602001610190565b6101ac6105e6366004611cef565b6115b8565b61021f7f42c974c05b75960ca4554cdd43e8def15b4b93646689af9542089b4816f8219d81565b6105bf61062036600461204c565b63f23a6e6160e01b9695505050505050565b5f6001600160e01b03198216637965db0b60e01b148061066257506301ffc9a760e01b6001600160e01b03198316145b92915050565b7f52eafc11f6f81f86878bffd31109a0d92f37506527754f00788853ff9f63b130610692816115dc565b83355f90815260046020526040902080546001600160401b03166106d15760405162461bcd60e51b81526004016106c8906120be565b60405180910390fd5b8054600160c01b900460ff161561071d5760405162461bcd60e51b815260206004820152601060248201526f185b1c9958591e4b595e1d195b99195960821b60448201526064016106c8565b8054600160c81b900460ff16156107665760405162461bcd60e51b815260206004820152600d60248201526c1dda5b991bddcb58db1bdcd959609a1b60448201526064016106c8565b8054600160401b90046001600160401b03166060860135116107be5760405162461bcd60e51b815260206004820152601160248201527034b73b30b634b216b2bc3a32b739b4b7b760791b60448201526064016106c8565b428560600135116108025760405162461bcd60e51b815260206004820152600e60248201526d195e1d195b9cda5bdb8b5c185cdd60921b60448201526064016106c8565b80545f9061081d906001600160401b031660608801356120fd565b82549091506001600160401b03600160801b9091048116908216111561087c5760405162461bcd60e51b815260206004820152601460248201527332bc31b2b2b23996b6b0bc16b23ab930ba34b7b760611b60448201526064016106c8565b85355f8181526006602090815260408083205481517f42c974c05b75960ca4554cdd43e8def15b4b93646689af9542089b4816f8219d8185015280830195909552918a0135606080860191909152908a0135608085015289013560a084015260c08301529060e0016040516020818303038152906040528051906020012090505f610906826115e9565b90505f6109488289898080601f0160208091040260200160405190810160405280939291908181526020018383808284375f9201919091525061161592505050565b90506109747f59a1c48e5837ad7a7f3dcedcbe129bf3249ec4fbf651fd4f5e2600ead39fe2f58261158e565b6109b25760405162461bcd60e51b815260206004820152600f60248201526e34b73b30b634b216b0bab234ba37b960891b60448201526064016106c8565b88355f9081526006602052604081208054600192906109d2908490612124565b90915550508454600160c01b78ff0000000000000000ffffffffffffffff000000000000000019909116600160401b60608c8101356001600160401b031691820260ff60c01b1916929092179290921787556020808c0135600189018190556040808e013560028b018190558151958652928501919091528301528a35917f9137d6c18b4903057d7025dd62fc63034a3dfc5e675340ab4144d4325ea3e9c8910160405180910390a2505050505050505050565b5f81815260046020526040902080546001600160401b0316610aba5760405162461bcd60e51b81526004016106c8906120be565b8054600160401b90046001600160401b03164211610b0a5760405162461bcd60e51b815260206004820152600d60248201526c77696e646f772d61637469766560981b60448201526064016106c8565b8054600160c81b900460ff1615610b545760405162461bcd60e51b815260206004820152600e60248201526d185b1c9958591e4b58db1bdcd95960921b60448201526064016106c8565b5f828152600560205260408082208151600180825281840190935290929181602001602082028036833750506040805160018082528183019092529293505f92915060208083019080368337019050509050610bb2856103e8612137565b825f81518110610bc457610bc461214e565b6020026020010181815250507f00000000000000000000000000000000000000000000000000000000000000006001600160a01b031662fdd58e30845f81518110610c1157610c1161214e565b60200260200101516040518363ffffffff1660e01b8152600401610c4a9291906001600160a01b03929092168252602082015260400190565b602060405180830381865afa158015610c65573d5f803e3d5ffd5b505050506040513d601f19601f82011682018060405250810190610c899190612162565b815f81518110610c9b57610c9b61214e565b6020026020010181815250505f815f81518110610cba57610cba61214e565b60200260200101511115610df4577f00000000000000000000000000000000000000000000000000000000000000006001600160a01b031663f242432a30855f015f9054906101000a90046001600160a01b0316855f81518110610d2057610d2061214e565b6020026020010151855f81518110610d3a57610d3a61214e565b60209081029190910101516040516001600160e01b031960e087901b1681526001600160a01b0394851660048201529390921660248401526044830152606482015260a060848201525f60a482015260c4015f604051808303815f87803b158015610da3575f80fd5b505af1158015610db5573d5f803e3d5ffd5b50505050847faf41238bebc313035b458c405e2ed59dc8cd4484db7a4ab7fe40d8ac1e130a2a8383604051610deb929190612179565b60405180910390a25b5050815460ff60c81b1916600160c81b179091555050565b5f82815260026020526040902060010154610e26816115dc565b610e30838361163d565b50505050565b7f2876772a04b89b94c8c87ac69aa615c01e5a2ea27395a2c907a36aadb2f665c9610e60816115dc565b610e686116ce565b5f89815260046020526040902080546001600160401b0316610e9c5760405162461bcd60e51b81526004016106c8906120be565b8054600160c81b900460ff1615610ee55760405162461bcd60e51b815260206004820152600d60248201526c1dda5b991bddcb58db1bdcd959609a1b60448201526064016106c8565b8054600160401b90046001600160401b0316421115610f375760405162461bcd60e51b815260206004820152600e60248201526d1dda5b991bddcb595e1c1a5c995960921b60448201526064016106c8565b868514610f785760405162461bcd60e51b815260206004820152600f60248201526e0d8cadccee8d05adad2e6dac2e8c6d608b1b60448201526064016106c8565b86610fb25760405162461bcd60e51b815260206004820152600a602482015269656d7074792d73616c6560b01b60448201526064016106c8565b6001600160a01b038916610ffe5760405162461bcd60e51b8152602060048201526013602482015272696e76616c69642d62656e656669636961727960681b60448201526064016106c8565b604051631759616b60e11b81526001600160a01b037f00000000000000000000000000000000000000000000000000000000000000001690632eb2c2d6906110549030908d908d908d908d908d906004016121d6565b5f604051808303815f87803b15801561106b575f80fd5b505af115801561107d573d5f803e3d5ffd5b505050505f83111561110d5760405163322e08db60e21b8152600481018b905260248101849052604481018590527f00000000000000000000000000000000000000000000000000000000000000006001600160a01b03169063c8b8236c906064015f604051808303815f87803b1580156110f6575f80fd5b505af1158015611108573d5f803e3d5ffd5b505050505b886001600160a01b03168a7f72bbed23a3f6277b3a5235050660852c3bef08c3a032a82361db5e704bf9e8458a8a8a8a8a8a60405161115196959493929190612233565b60405180910390a3506111646001600355565b505050505050505050565b6001600160a01b03811633146111985760405163334bd91960e11b815260040160405180910390fd5b6111a282826116f8565b505050565b7f52eafc11f6f81f86878bffd31109a0d92f37506527754f00788853ff9f63b1306111d1816115dc565b5f868152600460205260409020546001600160401b0316156112255760405162461bcd60e51b815260206004820152600d60248201526c77696e646f772d65786973747360981b60448201526064016106c8565b5f856001600160401b031611801561124f5750836001600160401b0316856001600160401b031611155b61128e5760405162461bcd60e51b815260206004820152601060248201526f34b73b30b634b216b23ab930ba34b7b760811b60448201526064016106c8565b6001600160a01b0383166112dc5760405162461bcd60e51b81526020600482015260156024820152741a5b9d985b1a590b599d5b99195c8b5dd85b1b195d605a1b60448201526064016106c8565b5f6112e7864261226f565b90506040518060e00160405280426001600160401b03168152602001826001600160401b03168152602001866001600160401b031681526020015f151581526020015f151581526020015f801b81526020015f81525060045f8981526020019081526020015f205f820151815f015f6101000a8154816001600160401b0302191690836001600160401b031602179055506020820151815f0160086101000a8154816001600160401b0302191690836001600160401b031602179055506040820151815f0160106101000a8154816001600160401b0302191690836001600160401b031602179055506060820151815f0160186101000a81548160ff0219169083151502179055506080820151815f0160196101000a81548160ff02191690831515021790555060a0820151816001015560c082015181600201559050506040518060400160405280856001600160a01b0316815260200184600181111561145157611451611d19565b90525f888152600560209081526040909120825181546001600160a01b039091166001600160a01b031982168117835592840151919283916001600160a81b03191617600160a01b8360018111156114ab576114ab611d19565b0217905550506040516001600160401b03831681528891507f91a6f90751d9ef950d13c74c591d8b1007a5fbebc19a4bc996f38df441fb35c79060200160405180910390a250505050505050565b5f81815260046020526040812080546001600160401b03161580159061152857508054600160c81b900460ff16155b801561154557508054600160401b90046001600160401b03164211155b9392505050565b5f6060805f805f606061155d611763565b611565611794565b604080515f80825260208201909252600f60f81b9b939a50919850469750309650945092509050565b5f9182526002602090815260408084206001600160a01b0393909316845291905290205460ff1690565b5f828152600260205260409020600101546115d2816115dc565b610e3083836116f8565b6115e681336117c1565b50565b5f6106626115f56117fe565b8360405161190160f01b8152600281019290925260228201526042902090565b5f805f806116238686611927565b9250925092506116338282611970565b5090949350505050565b5f611648838361158e565b6116c7575f8381526002602090815260408083206001600160a01b03861684529091529020805460ff1916600117905561167f3390565b6001600160a01b0316826001600160a01b0316847f2f8788117e7eff1d82e926ec794901d17c78024a50270940304540a733656f0d60405160405180910390a4506001610662565b505f610662565b6002600354036116f157604051633ee5aeb560e01b815260040160405180910390fd5b6002600355565b5f611703838361158e565b156116c7575f8381526002602090815260408083206001600160a01b0386168085529252808320805460ff1916905551339286917ff6391f5c32d9c69d2a47ea670b442974b53935d1edc7fd64eb21e047a839171b9190a4506001610662565b606061178f7f00000000000000000000000000000000000000000000000000000000000000005f611a28565b905090565b606061178f7f00000000000000000000000000000000000000000000000000000000000000006001611a28565b6117cb828261158e565b6117fa5760405163e2517d3f60e01b81526001600160a01b0382166004820152602481018390526044016106c8565b5050565b5f306001600160a01b037f00000000000000000000000000000000000000000000000000000000000000001614801561185657507f000000000000000000000000000000000000000000000000000000000000000046145b1561188057507f000000000000000000000000000000000000000000000000000000000000000090565b61178f604080517f8b73c3c69bb8fe3d512ecc4cf759cc79239f7b179b0ffacaa9a75d522b39400f60208201527f0000000000000000000000000000000000000000000000000000000000000000918101919091527f000000000000000000000000000000000000000000000000000000000000000060608201524660808201523060a08201525f9060c00160405160208183030381529060405280519060200120905090565b5f805f835160410361195e576020840151604085015160608601515f1a61195088828585611ad1565b955095509550505050611969565b505081515f91506002905b9250925092565b5f82600381111561198357611983611d19565b0361198c575050565b60018260038111156119a0576119a0611d19565b036119be5760405163f645eedf60e01b815260040160405180910390fd5b60028260038111156119d2576119d2611d19565b036119f35760405163fce698f760e01b8152600481018290526024016106c8565b6003826003811115611a0757611a07611d19565b036117fa576040516335e2f38360e21b8152600481018290526024016106c8565b606060ff8314611a4257611a3b83611b99565b9050610662565b818054611a4e9061228f565b80601f0160208091040260200160405190810160405280929190818152602001828054611a7a9061228f565b8015611ac55780601f10611a9c57610100808354040283529160200191611ac5565b820191905f5260205f20905b815481529060010190602001808311611aa857829003601f168201915b50505050509050610662565b5f80807f7fffffffffffffffffffffffffffffff5d576e7357a4501ddfe92f46681b20a0841115611b0a57505f91506003905082611b8f565b604080515f808252602082018084528a905260ff891692820192909252606081018790526080810186905260019060a0016020604051602081039080840390855afa158015611b5b573d5f803e3d5ffd5b5050604051601f1901519150506001600160a01b038116611b8657505f925060019150829050611b8f565b92505f91508190505b9450945094915050565b60605f611ba583611bd6565b6040805160208082528183019092529192505f91906020820181803683375050509182525060208101929092525090565b5f60ff8216601f81111561066257604051632cd44ac360e21b815260040160405180910390fd5b5f60208284031215611c0d575f80fd5b81356001600160e01b031981168114611545575f80fd5b5f8083601f840112611c34575f80fd5b5081356001600160401b03811115611c4a575f80fd5b602083019150836020828501011115611c61575f80fd5b9250929050565b5f805f83850360c0811215611c7b575f80fd5b60a0811215611c88575f80fd5b5083925060a08401356001600160401b03811115611ca4575f80fd5b611cb086828701611c24565b9497909650939450505050565b5f60208284031215611ccd575f80fd5b5035919050565b80356001600160a01b0381168114611cea575f80fd5b919050565b5f8060408385031215611d00575f80fd5b82359150611d1060208401611cd4565b90509250929050565b634e487b7160e01b5f52602160045260245ffd5b6001600160a01b03831681526040810160028310611d5957634e487b7160e01b5f52602160045260245ffd5b8260208301529392505050565b5f8083601f840112611d76575f80fd5b5081356001600160401b03811115611d8c575f80fd5b6020830191508360208260051b8501011115611c61575f80fd5b5f805f805f805f8060c0898b031215611dbd575f80fd5b88359750611dcd60208a01611cd4565b965060408901356001600160401b0380821115611de8575f80fd5b611df48c838d01611d66565b909850965060608b0135915080821115611e0c575f80fd5b50611e198b828c01611d66565b999c989b5096999598969760808701359660a0013595509350505050565b80356001600160401b0381168114611cea575f80fd5b5f805f805f60a08688031215611e61575f80fd5b85359450611e7160208701611e37565b9350611e7f60408701611e37565b9250611e8d60608701611cd4565b9150608086013560028110611ea0575f80fd5b809150509295509295909350565b5f81518084525f5b81811015611ed257602081850181015186830182015201611eb6565b505f602082860101526020601f19601f83011685010191505092915050565b5f815180845260208085019450602084015f5b83811015611f2057815187529582019590820190600101611f04565b509495945050505050565b60ff60f81b8816815260e060208201525f611f4960e0830189611eae565b8281036040840152611f5b8189611eae565b606084018890526001600160a01b038716608085015260a0840186905283810360c08501529050611f8c8185611ef1565b9a9950505050505050505050565b5f805f805f805f8060a0898b031215611fb1575f80fd5b611fba89611cd4565b9750611fc860208a01611cd4565b965060408901356001600160401b0380821115611fe3575f80fd5b611fef8c838d01611d66565b909850965060608b0135915080821115612007575f80fd5b6120138c838d01611d66565b909650945060808b013591508082111561202b575f80fd5b506120388b828c01611c24565b999c989b5096995094979396929594505050565b5f805f805f8060a08789031215612061575f80fd5b61206a87611cd4565b955061207860208801611cd4565b9450604087013593506060870135925060808701356001600160401b038111156120a0575f80fd5b6120ac89828a01611c24565b979a9699509497509295939492505050565b60208082526011908201527077696e646f772d6e6f742d65786973747360781b604082015260600190565b634e487b7160e01b5f52601160045260245ffd5b6001600160401b0382811682821603908082111561211d5761211d6120e9565b5092915050565b80820180821115610662576106626120e9565b8082028115828204841417610662576106626120e9565b634e487b7160e01b5f52603260045260245ffd5b5f60208284031215612172575f80fd5b5051919050565b604081525f61218b6040830185611ef1565b828103602084015261219d8185611ef1565b95945050505050565b8183525f6001600160fb1b038311156121bd575f80fd5b8260051b80836020870137939093016020019392505050565b6001600160a01b0387811682528616602082015260a0604082018190525f9061220290830186886121a6565b82810360608401526122158185876121a6565b83810360809094019390935250505f81526020019695505050505050565b608081525f61224660808301888a6121a6565b82810360208401526122598187896121a6565b6040840195909552505060600152949350505050565b6001600160401b0381811683821601908082111561211d5761211d6120e9565b600181811c908216806122a357607f821691505b6020821081036122c157634e487b7160e01b5f52602260045260245ffd5b5091905056fea2646970667358221220df3ca69e5d5d030feb908a576fb9750efe2cd6b3c1fa4c8333c75a80637b3ad464736f6c63430008180033","linkReferences":{}},"methodIdentifiers":{"AUDITOR_ROLE()":"6e1d616e","DEFAULT_ADMIN_ROLE()":"a217fddf","EXTENSION_TYPEHASH()":"ea99a0b6","PROJECT_ADMIN_ROLE()":"41c04d5e","SALES_AGENT_ROLE()":"1b2764b2","assignToFunder(uint256)":"0e48d81d","eip712Domain()":"84b0196e","expiryConfigs(uint256)":"3025ad01","extendMarketWindow((uint256,bytes32,uint256,uint256,uint256),bytes)":"09082177","getMarketWindow(uint256)":"5462e3f1","getRoleAdmin(bytes32)":"248a9ca3","grantRole(bytes32,address)":"2f2ff15d","hasRole(bytes32,address)":"91d14854","isWindowActive(uint256)":"6b0f9ae7","liftUnits()":"a34d8c09","marketWindows(uint256)":"b83d886b","nonces(uint256)":"141a468c","onERC1155BatchReceived(address,address,uint256[],uint256[],bytes)":"bc197c81","onERC1155Received(address,address,uint256,uint256,bytes)":"f23a6e61","openMarketWindow(uint256,uint64,uint64,address,uint8)":"568b0730","renounceRole(bytes32,address)":"36568abe","repaymentEscrow()":"0dfbd3fb","revokeRole(bytes32,address)":"d547741f","sellToBeneficiary(uint256,address,uint256[],uint256[],bytes32,uint256)":"315f70ee","supportsInterface(bytes4)":"01ffc9a7"},"id":52}