{"abi":[{"type":"constructor","inputs":[{"name":"uri","type":"string","internalType":"string"},{"name":"_methodRegistry","type":"address","internalType":"contract MethodRegistry"}],"stateMutability":"nonpayable"},{"type":"function","name":"DEFAULT_ADMIN_ROLE","inputs":[],"outputs":[{"name":"","type":"bytes32","internalType":"bytes32"}],"stateMutability":"view"},{"type":"function","name":"ISSUANCE_TYPEHASH","inputs":[],"outputs":[{"name":"","type":"bytes32","internalType":"bytes32"}],"stateMutability":"view"},{"type":"function","name":"PROJECT_ADMIN_ROLE","inputs":[],"outputs":[{"name":"","type":"bytes32","internalType":"bytes32"}],"stateMutability":"view"},{"type":"function","name":"VERIFIER_ROLE","inputs":[],"outputs":[{"name":"","type":"bytes32","internalType":"bytes32"}],"stateMutability":"view"},{"type":"function","name":"balanceOf","inputs":[{"name":"account","type":"address","internalType":"address"},{"name":"id","type":"uint256","internalType":"uint256"}],"outputs":[{"name":"","type":"uint256","internalType":"uint256"}],"stateMutability":"view"},{"type":"function","name":"balanceOfBatch","inputs":[{"name":"accounts","type":"address[]","internalType":"address[]"},{"name":"ids","type":"uint256[]","internalType":"uint256[]"}],"outputs":[{"name":"","type":"uint256[]","internalType":"uint256[]"}],"stateMutability":"view"},{"type":"function","name":"configureIssuance","inputs":[{"name":"projectId","type":"uint256","internalType":"uint256"},{"name":"methodId","type":"bytes32","internalType":"bytes32"},{"name":"methodHash","type":"bytes32","internalType":"bytes32"},{"name":"targetUnits","type":"uint256","internalType":"uint256"},{"name":"minUnits","type":"uint256","internalType":"uint256"},{"name":"maxUnits","type":"uint256","internalType":"uint256"},{"name":"allocationEscrow","type":"address","internalType":"address"}],"outputs":[],"stateMutability":"nonpayable"},{"type":"function","name":"eip712Domain","inputs":[],"outputs":[{"name":"fields","type":"bytes1","internalType":"bytes1"},{"name":"name","type":"string","internalType":"string"},{"name":"version","type":"string","internalType":"string"},{"name":"chainId","type":"uint256","internalType":"uint256"},{"name":"verifyingContract","type":"address","internalType":"address"},{"name":"salt","type":"bytes32","internalType":"bytes32"},{"name":"extensions","type":"uint256[]","internalType":"uint256[]"}],"stateMutability":"view"},{"type":"function","name":"getRoleAdmin","inputs":[{"name":"role","type":"bytes32","internalType":"bytes32"}],"outputs":[{"name":"","type":"bytes32","internalType":"bytes32"}],"stateMutability":"view"},{"type":"function","name":"getTokenStats","inputs":[{"name":"tokenId","type":"uint256","internalType":"uint256"}],"outputs":[{"name":"totalMinted","type":"uint256","internalType":"uint256"},{"name":"totalRetiredAmount","type":"uint256","internalType":"uint256"},{"name":"circulating","type":"uint256","internalType":"uint256"}],"stateMutability":"view"},{"type":"function","name":"grantRole","inputs":[{"name":"role","type":"bytes32","internalType":"bytes32"},{"name":"account","type":"address","internalType":"address"}],"outputs":[],"stateMutability":"nonpayable"},{"type":"function","name":"hasRole","inputs":[{"name":"role","type":"bytes32","internalType":"bytes32"},{"name":"account","type":"address","internalType":"address"}],"outputs":[{"name":"","type":"bool","internalType":"bool"}],"stateMutability":"view"},{"type":"function","name":"isApprovedForAll","inputs":[{"name":"account","type":"address","internalType":"address"},{"name":"operator","type":"address","internalType":"address"}],"outputs":[{"name":"","type":"bool","internalType":"bool"}],"stateMutability":"view"},{"type":"function","name":"issuanceConfigs","inputs":[{"name":"","type":"uint256","internalType":"uint256"}],"outputs":[{"name":"methodId","type":"bytes32","internalType":"bytes32"},{"name":"methodHash","type":"bytes32","internalType":"bytes32"},{"name":"targetUnits","type":"uint256","internalType":"uint256"},{"name":"minUnits","type":"uint256","internalType":"uint256"},{"name":"maxUnits","type":"uint256","internalType":"uint256"},{"name":"allocationEscrow","type":"address","internalType":"address"},{"name":"nonce","type":"uint256","internalType":"uint256"},{"name":"issuanceCertified","type":"bool","internalType":"bool"},{"name":"configured","type":"bool","internalType":"bool"}],"stateMutability":"view"},{"type":"function","name":"methodRegistry","inputs":[],"outputs":[{"name":"","type":"address","internalType":"contract MethodRegistry"}],"stateMutability":"view"},{"type":"function","name":"renounceRole","inputs":[{"name":"role","type":"bytes32","internalType":"bytes32"},{"name":"callerConfirmation","type":"address","internalType":"address"}],"outputs":[],"stateMutability":"nonpayable"},{"type":"function","name":"retire","inputs":[{"name":"tokenId","type":"uint256","internalType":"uint256"},{"name":"amount","type":"uint256","internalType":"uint256"},{"name":"retirementNoteCid","type":"bytes32","internalType":"bytes32"}],"outputs":[],"stateMutability":"nonpayable"},{"type":"function","name":"revokeRole","inputs":[{"name":"role","type":"bytes32","internalType":"bytes32"},{"name":"account","type":"address","internalType":"address"}],"outputs":[],"stateMutability":"nonpayable"},{"type":"function","name":"safeBatchTransferFrom","inputs":[{"name":"from","type":"address","internalType":"address"},{"name":"to","type":"address","internalType":"address"},{"name":"ids","type":"uint256[]","internalType":"uint256[]"},{"name":"values","type":"uint256[]","internalType":"uint256[]"},{"name":"data","type":"bytes","internalType":"bytes"}],"outputs":[],"stateMutability":"nonpayable"},{"type":"function","name":"safeTransferFrom","inputs":[{"name":"from","type":"address","internalType":"address"},{"name":"to","type":"address","internalType":"address"},{"name":"id","type":"uint256","internalType":"uint256"},{"name":"value","type":"uint256","internalType":"uint256"},{"name":"data","type":"bytes","internalType":"bytes"}],"outputs":[],"stateMutability":"nonpayable"},{"type":"function","name":"setApprovalForAll","inputs":[{"name":"operator","type":"address","internalType":"address"},{"name":"approved","type":"bool","internalType":"bool"}],"outputs":[],"stateMutability":"nonpayable"},{"type":"function","name":"supportsInterface","inputs":[{"name":"interfaceId","type":"bytes4","internalType":"bytes4"}],"outputs":[{"name":"","type":"bool","internalType":"bool"}],"stateMutability":"view"},{"type":"function","name":"tokenURIs","inputs":[{"name":"","type":"uint256","internalType":"uint256"}],"outputs":[{"name":"","type":"string","internalType":"string"}],"stateMutability":"view"},{"type":"function","name":"totalRetired","inputs":[{"name":"","type":"uint256","internalType":"uint256"}],"outputs":[{"name":"","type":"uint256","internalType":"uint256"}],"stateMutability":"view"},{"type":"function","name":"totalSupply","inputs":[{"name":"","type":"uint256","internalType":"uint256"}],"outputs":[{"name":"","type":"uint256","internalType":"uint256"}],"stateMutability":"view"},{"type":"function","name":"uri","inputs":[{"name":"","type":"uint256","internalType":"uint256"}],"outputs":[{"name":"","type":"string","internalType":"string"}],"stateMutability":"view"},{"type":"event","name":"ApprovalForAll","inputs":[{"name":"account","type":"address","indexed":true,"internalType":"address"},{"name":"operator","type":"address","indexed":true,"internalType":"address"},{"name":"approved","type":"bool","indexed":false,"internalType":"bool"}],"anonymous":false},{"type":"event","name":"EIP712DomainChanged","inputs":[],"anonymous":false},{"type":"event","name":"Retired","inputs":[{"name":"tokenId","type":"uint256","indexed":true,"internalType":"uint256"},{"name":"amount","type":"uint256","indexed":false,"internalType":"uint256"},{"name":"retiree","type":"address","indexed":true,"internalType":"address"},{"name":"retirementNoteCid","type":"bytes32","indexed":false,"internalType":"bytes32"}],"anonymous":false},{"type":"event","name":"RoleAdminChanged","inputs":[{"name":"role","type":"bytes32","indexed":true,"internalType":"bytes32"},{"name":"previousAdminRole","type":"bytes32","indexed":true,"internalType":"bytes32"},{"name":"newAdminRole","type":"bytes32","indexed":true,"internalType":"bytes32"}],"anonymous":false},{"type":"event","name":"RoleGranted","inputs":[{"name":"role","type":"bytes32","indexed":true,"internalType":"bytes32"},{"name":"account","type":"address","indexed":true,"internalType":"address"},{"name":"sender","type":"address","indexed":true,"internalType":"address"}],"anonymous":false},{"type":"event","name":"RoleRevoked","inputs":[{"name":"role","type":"bytes32","indexed":true,"internalType":"bytes32"},{"name":"account","type":"address","indexed":true,"internalType":"address"},{"name":"sender","type":"address","indexed":true,"internalType":"address"}],"anonymous":false},{"type":"event","name":"TransferBatch","inputs":[{"name":"operator","type":"address","indexed":true,"internalType":"address"},{"name":"from","type":"address","indexed":true,"internalType":"address"},{"name":"to","type":"address","indexed":true,"internalType":"address"},{"name":"ids","type":"uint256[]","indexed":false,"internalType":"uint256[]"},{"name":"values","type":"uint256[]","indexed":false,"internalType":"uint256[]"}],"anonymous":false},{"type":"event","name":"TransferSingle","inputs":[{"name":"operator","type":"address","indexed":true,"internalType":"address"},{"name":"from","type":"address","indexed":true,"internalType":"address"},{"name":"to","type":"address","indexed":true,"internalType":"address"},{"name":"id","type":"uint256","indexed":false,"internalType":"uint256"},{"name":"value","type":"uint256","indexed":false,"internalType":"uint256"}],"anonymous":false},{"type":"event","name":"URI","inputs":[{"name":"value","type":"string","indexed":false,"internalType":"string"},{"name":"id","type":"uint256","indexed":true,"internalType":"uint256"}],"anonymous":false},{"type":"event","name":"VerifiedIssuance","inputs":[{"name":"projectId","type":"uint256","indexed":true,"internalType":"uint256"},{"name":"certificateCid","type":"bytes32","indexed":false,"internalType":"bytes32"},{"name":"tokenIds","type":"uint256[]","indexed":false,"internalType":"uint256[]"},{"name":"amounts","type":"uint256[]","indexed":false,"internalType":"uint256[]"},{"name":"totalIssued","type":"uint256","indexed":false,"internalType":"uint256"}],"anonymous":false},{"type":"error","name":"AccessControlBadConfirmation","inputs":[]},{"type":"error","name":"AccessControlUnauthorizedAccount","inputs":[{"name":"account","type":"address","internalType":"address"},{"name":"neededRole","type":"bytes32","internalType":"bytes32"}]},{"type":"error","name":"ERC1155InsufficientBalance","inputs":[{"name":"sender","type":"address","internalType":"address"},{"name":"balance","type":"uint256","internalType":"uint256"},{"name":"needed","type":"uint256","internalType":"uint256"},{"name":"tokenId","type":"uint256","internalType":"uint256"}]},{"type":"error","name":"ERC1155InvalidApprover","inputs":[{"name":"approver","type":"address","internalType":"address"}]},{"type":"error","name":"ERC1155InvalidArrayLength","inputs":[{"name":"idsLength","type":"uint256","internalType":"uint256"},{"name":"valuesLength","type":"uint256","internalType":"uint256"}]},{"type":"error","name":"ERC1155InvalidOperator","inputs":[{"name":"operator","type":"address","internalType":"address"}]},{"type":"error","name":"ERC1155InvalidReceiver","inputs":[{"name":"receiver","type":"address","internalType":"address"}]},{"type":"error","name":"ERC1155InvalidSender","inputs":[{"name":"sender","type":"address","internalType":"address"}]},{"type":"error","name":"ERC1155MissingApprovalForAll","inputs":[{"name":"operator","type":"address","internalType":"address"},{"name":"owner","type":"address","internalType":"address"}]},{"type":"error","name":"InvalidShortString","inputs":[]},{"type":"error","name":"ReentrancyGuardReentrantCall","inputs":[]},{"type":"error","name":"StringTooLong","inputs":[{"name":"str","type":"string","internalType":"string"}]}],"bytecode":{"object":"0x61018060405234801562000011575f80fd5b50604051620025e3380380620025e38339810160408190526200003491620002f7565b604051806040016040528060098152602001684c696674556e69747360b81b815250604051806040016040528060018152602001603160f81b8152508362000082816200015f60201b60201c565b506200009082600362000171565b61012052620000a181600462000171565b61014052815160208084019190912060e052815190820120610100524660a0526200012e60e05161010051604080517f8b73c3c69bb8fe3d512ecc4cf759cc79239f7b179b0ffacaa9a75d522b39400f60208201529081019290925260608201524660808201523060a08201525f9060c00160405160208183030381529060405280519060200120905090565b60805250503060c05260016006556001600160a01b03811661016052620001565f33620001a9565b5050506200056d565b60026200016d828262000449565b5050565b5f6020835110156200019057620001888362000258565b9050620001a3565b816200019d848262000449565b5060ff90505b92915050565b5f8281526005602090815260408083206001600160a01b038516845290915281205460ff1662000250575f8381526005602090815260408083206001600160a01b03861684529091529020805460ff19166001179055620002073390565b6001600160a01b0316826001600160a01b0316847f2f8788117e7eff1d82e926ec794901d17c78024a50270940304540a733656f0d60405160405180910390a4506001620001a3565b505f620001a3565b5f80829050601f815111156200028e578260405163305a27a960e01b815260040162000285919062000515565b60405180910390fd5b80516200029b8262000549565b179392505050565b634e487b7160e01b5f52604160045260245ffd5b5f5b83811015620002d3578181015183820152602001620002b9565b50505f910152565b80516001600160a01b0381168114620002f2575f80fd5b919050565b5f806040838503121562000309575f80fd5b82516001600160401b038082111562000320575f80fd5b818501915085601f83011262000334575f80fd5b815181811115620003495762000349620002a3565b604051601f8201601f19908116603f01168101908382118183101715620003745762000374620002a3565b816040528281528860208487010111156200038d575f80fd5b620003a0836020830160208801620002b7565b8096505050505050620003b660208401620002db565b90509250929050565b600181811c90821680620003d457607f821691505b602082108103620003f357634e487b7160e01b5f52602260045260245ffd5b50919050565b601f8211156200044457805f5260205f20601f840160051c81016020851015620004205750805b601f840160051c820191505b8181101562000441575f81556001016200042c565b50505b505050565b81516001600160401b03811115620004655762000465620002a3565b6200047d81620004768454620003bf565b84620003f9565b602080601f831160018114620004b3575f84156200049b5750858301515b5f19600386901b1c1916600185901b1785556200050d565b5f85815260208120601f198616915b82811015620004e357888601518255948401946001909101908401620004c2565b50858210156200050157878501515f19600388901b60f8161c191681555b505060018460011b0185555b505050505050565b602081525f825180602084015262000535816040850160208701620002b7565b601f01601f19169190910160400192915050565b80516020808301519190811015620003f3575f1960209190910360031b1b16919050565b60805160a05160c05160e05161010051610120516101405161016051612022620005c15f395f81816102f501526109e501525f610f9601525f610f6401525f50505f50505f50505f50505f50506120225ff3fe608060405234801561000f575f80fd5b5060043610610186575f3560e01c80637436f584116100d9578063bd85b03911610093578063dbcaf3e51161006e578063dbcaf3e5146104a3578063e7705db6146104b6578063e985e9c5146104dd578063f242432a146104f0575f80fd5b8063bd85b03914610443578063c582951414610462578063d547741f14610490575f80fd5b80637436f5841461032f57806384b0196e146103e85780638539ab3e1461040357806391d1485414610416578063a217fddf14610429578063a22cb46514610430575f80fd5b806336568abe116101445780634e1273f41161011f5780634e1273f41461029e5780635abe3437146102be5780636c8b703f146102dd5780636f9fbca4146102f0575f80fd5b806336568abe1461023d57806341c04d5e146102505780634b7f7b4a14610277575f80fd5b8062fdd58e1461018a57806301ffc9a7146101b05780630e89341c146101d3578063248a9ca3146101f35780632eb2c2d6146102155780632f2ff15d1461022a575b5f80fd5b61019d61019836600461174d565b610503565b6040519081526020015b60405180910390f35b6101c36101be36600461178c565b61052a565b60405190151581526020016101a7565b6101e66101e13660046117ae565b610534565b6040516101a79190611812565b61019d6102013660046117ae565b5f9081526005602052604090206001015490565b610228610223366004611996565b6105c6565b005b610228610238366004611a3d565b610632565b61022861024b366004611a3d565b61065c565b61019d7f52eafc11f6f81f86878bffd31109a0d92f37506527754f00788853ff9f63b13081565b61019d7f35b2c2d07f783f613345affc50b059a96e401a740f128f5967252c96e2d58d2081565b6102b16102ac366004611a6b565b610694565b6040516101a79190611b61565b61019d6102cc3660046117ae565b600a6020525f908152604090205481565b6101e66102eb3660046117ae565b61075f565b6103177f000000000000000000000000000000000000000000000000000000000000000081565b6040516001600160a01b0390911681526020016101a7565b61039761033d3660046117ae565b600760208190525f918252604090912080546001820154600283015460038401546004850154600586015460068701549690970154949693959294919390926001600160a01b039091169160ff8082169161010090041689565b60408051998a5260208a019890985296880195909552606087019390935260808601919091526001600160a01b031660a085015260c0840152151560e08301521515610100820152610120016101a7565b6103f06107f6565b6040516101a79796959493929190611b73565b610228610411366004611be2565b610838565b6101c3610424366004611a3d565b610bb5565b61019d5f81565b61022861043e366004611c4a565b610bdf565b61019d6104513660046117ae565b60096020525f908152604090205481565b6104756104703660046117ae565b610bee565b604080519384526020840192909252908201526060016101a7565b61022861049e366004611a3d565b610c1b565b6102286104b1366004611c76565b610c3f565b61019d7f0ce23c3e399818cfee81a7ab0880f714e53d7672b08df0fa62f2843416e1ea0981565b6101c36104eb366004611c9f565b610d3f565b6102286104fe366004611ccb565b610d6c565b5f818152602081815260408083206001600160a01b03861684529091529020545b92915050565b5f61052482610dcb565b60606002805461054390611d2f565b80601f016020809104026020016040519081016040528092919081815260200182805461056f90611d2f565b80156105ba5780601f10610591576101008083540402835291602001916105ba565b820191905f5260205f20905b81548152906001019060200180831161059d57829003601f168201915b50505050509050919050565b336001600160a01b03861681148015906105e757506105e58682610d3f565b155b1561061d5760405163711bec9160e11b81526001600160a01b038083166004830152871660248201526044015b60405180910390fd5b61062a8686868686610def565b505050505050565b5f8281526005602052604090206001015461064c81610e54565b6106568383610e61565b50505050565b6001600160a01b03811633146106855760405163334bd91960e11b815260040160405180910390fd5b61068f8282610ef2565b505050565b606081518351146106c55781518351604051635b05999160e01b815260048101929092526024820152604401610614565b5f835167ffffffffffffffff8111156106e0576106e0611824565b604051908082528060200260200182016040528015610709578160200160208202803683370190505b5090505f5b84518110156107575760208082028601015161073290602080840287010151610503565b82828151811061074457610744611d67565b602090810291909101015260010161070e565b509392505050565b60086020525f90815260409020805461077790611d2f565b80601f01602080910402602001604051908101604052809291908181526020018280546107a390611d2f565b80156107ee5780601f106107c5576101008083540402835291602001916107ee565b820191905f5260205f20905b8154815290600101906020018083116107d157829003601f168201915b505050505081565b5f6060805f805f6060610807610f5d565b61080f610f8f565b604080515f80825260208201909252600f60f81b9b939a50919850469750309650945092509050565b7f52eafc11f6f81f86878bffd31109a0d92f37506527754f00788853ff9f63b13061086281610e54565b5f8881526007602081905260409091200154610100900460ff16156108be5760405162461bcd60e51b8152602060048201526012602482015271185b1c9958591e4b58dbdb999a59dd5c995960721b6044820152606401610614565b5f85116108fe5760405162461bcd60e51b815260206004820152600e60248201526d1a5b9d985b1a590b5d185c99d95d60921b6044820152606401610614565b848411156109435760405162461bcd60e51b81526020600482015260126024820152711b5a5b8b595e18d959591ccb5d185c99d95d60721b6044820152606401610614565b848310156109865760405162461bcd60e51b815260206004820152601060248201526f1b585e0b58995b1bddcb5d185c99d95d60821b6044820152606401610614565b6001600160a01b0382166109cd5760405162461bcd60e51b815260206004820152600e60248201526d696e76616c69642d657363726f7760901b6044820152606401610614565b60405163154a0c9760e21b8152600481018890525f907f00000000000000000000000000000000000000000000000000000000000000006001600160a01b031690635528325c906024015f60405180830381865afa158015610a31573d5f803e3d5ffd5b505050506040513d5f823e601f3d908101601f19168201604052610a589190810190611df7565b90508060600151610a9d5760405162461bcd60e51b815260206004820152600f60248201526e6d6574686f642d696e61637469766560881b6044820152606401610614565b86816020015114610ae75760405162461bcd60e51b81526020600482015260146024820152730dacae8d0dec85ad0c2e6d05adad2e6dac2e8c6d60631b6044820152606401610614565b50506040805161012081018252968752602080880196875287820195865260608801948552608088019384526001600160a01b0392831660a089019081525f60c08a0181815260e08b018281526001610100808e018281529e8552600796879052969093209b518c559951918b0191909155965160028a0155945160038901559251600488015592516005870180546001600160a01b0319169190921617905591516006850155915192018054935161ffff1990941692151561ff0019169290921792151502919091179055565b5f9182526005602090815260408084206001600160a01b0393909316845291905290205460ff1690565b610bea338383610fbc565b5050565b5f81815260096020908152604080832054600a9092528220549091610c138284611edd565b929491935050565b5f82815260056020526040902060010154610c3581610e54565b6106568383610ef2565b5f8211610c7f5760405162461bcd60e51b815260206004820152600e60248201526d1a5b9d985b1a590b585b5bdd5b9d60921b6044820152606401610614565b81610c8a3385610503565b1015610ccf5760405162461bcd60e51b8152602060048201526014602482015273696e73756666696369656e742d62616c616e636560601b6044820152606401610614565b610cda338484611048565b5f838152600a602052604081208054849290610cf7908490611ef0565b90915550506040805183815260208101839052339185917fa057e36749c88aaa59bfa01247f70994474438f12fbdc26db50d71ac21a5f2cf91015b60405180910390a3505050565b6001600160a01b039182165f90815260016020908152604080832093909416825291909152205460ff1690565b336001600160a01b0386168114801590610d8d5750610d8b8682610d3f565b155b15610dbe5760405163711bec9160e11b81526001600160a01b03808316600483015287166024820152604401610614565b61062a86868686866110ae565b5f6001600160e01b03198216637965db0b60e01b148061052457506105248261113a565b6001600160a01b038416610e1857604051632bfa23e760e11b81525f6004820152602401610614565b6001600160a01b038516610e4057604051626a0d4560e21b81525f6004820152602401610614565b610e4d8585858585611189565b5050505050565b610e5e81336111dc565b50565b5f610e6c8383610bb5565b610eeb575f8381526005602090815260408083206001600160a01b03861684529091529020805460ff19166001179055610ea33390565b6001600160a01b0316826001600160a01b0316847f2f8788117e7eff1d82e926ec794901d17c78024a50270940304540a733656f0d60405160405180910390a4506001610524565b505f610524565b5f610efd8383610bb5565b15610eeb575f8381526005602090815260408083206001600160a01b0386168085529252808320805460ff1916905551339286917ff6391f5c32d9c69d2a47ea670b442974b53935d1edc7fd64eb21e047a839171b9190a4506001610524565b6060610f8a7f00000000000000000000000000000000000000000000000000000000000000006003611215565b905090565b6060610f8a7f00000000000000000000000000000000000000000000000000000000000000006004611215565b6001600160a01b038216610fe45760405162ced3e160e81b81525f6004820152602401610614565b6001600160a01b038381165f81815260016020908152604080832094871680845294825291829020805460ff191686151590811790915591519182527f17307eab39ab6107e8899845ad3d59bd9653f200f220920489ca2b5937696c319101610d32565b6001600160a01b03831661107057604051626a0d4560e21b81525f6004820152602401610614565b604080516001808252602082018590528183019081526060820184905260a082019092525f60808201818152919291610e4d91879185908590611189565b6001600160a01b0384166110d757604051632bfa23e760e11b81525f6004820152602401610614565b6001600160a01b0385166110ff57604051626a0d4560e21b81525f6004820152602401610614565b604080516001808252602082018690528183019081526060820185905260808201909252906111318787848487611189565b50505050505050565b5f6001600160e01b03198216636cdb3d1360e11b148061116a57506001600160e01b031982166303a24d0760e21b145b8061052457506301ffc9a760e01b6001600160e01b0319831614610524565b611195858585856112be565b6001600160a01b03841615610e4d57825133906001036111ce57602084810151908401516111c78389898585896114cd565b505061062a565b61062a8187878787876115ee565b6111e68282610bb5565b610bea5760405163e2517d3f60e01b81526001600160a01b038216600482015260248101839052604401610614565b606060ff831461122f57611228836116d5565b9050610524565b81805461123b90611d2f565b80601f016020809104026020016040519081016040528092919081815260200182805461126790611d2f565b80156112b25780601f10611289576101008083540402835291602001916112b2565b820191905f5260205f20905b81548152906001019060200180831161129557829003601f168201915b50505050509050610524565b80518251146112ed5781518151604051635b05999160e01b815260048101929092526024820152604401610614565b335f5b83518110156113ef576020818102858101820151908501909101516001600160a01b038816156113a1575f828152602081815260408083206001600160a01b038c1684529091529020548181101561137b576040516303dee4c560e01b81526001600160a01b038a166004820152602481018290526044810183905260648101849052608401610614565b5f838152602081815260408083206001600160a01b038d16845290915290209082900390555b6001600160a01b038716156113e5575f828152602081815260408083206001600160a01b038b168452909152812080548392906113df908490611ef0565b90915550505b50506001016112f0565b50825160010361146f5760208301515f906020840151909150856001600160a01b0316876001600160a01b0316846001600160a01b03167fc3d58168c5ae7397731d063d5bbf3d657854427343f4c083240f7aacaa2d0f628585604051611460929190918252602082015260400190565b60405180910390a45050610e4d565b836001600160a01b0316856001600160a01b0316826001600160a01b03167f4a39dc06d4c0dbc64b70af90fd698a233a518aa5d07e595d983b8c0526c8f7fb86866040516114be929190611f03565b60405180910390a45050505050565b6001600160a01b0384163b1561062a5760405163f23a6e6160e01b81526001600160a01b0385169063f23a6e61906115119089908990889088908890600401611f30565b6020604051808303815f875af192505050801561154b575060408051601f3d908101601f1916820190925261154891810190611f74565b60015b6115b2573d808015611578576040519150601f19603f3d011682016040523d82523d5f602084013e61157d565b606091505b5080515f036115aa57604051632bfa23e760e11b81526001600160a01b0386166004820152602401610614565b805160208201fd5b6001600160e01b0319811663f23a6e6160e01b1461113157604051632bfa23e760e11b81526001600160a01b0386166004820152602401610614565b6001600160a01b0384163b1561062a5760405163bc197c8160e01b81526001600160a01b0385169063bc197c81906116329089908990889088908890600401611f8f565b6020604051808303815f875af192505050801561166c575060408051601f3d908101601f1916820190925261166991810190611f74565b60015b611699573d808015611578576040519150601f19603f3d011682016040523d82523d5f602084013e61157d565b6001600160e01b0319811663bc197c8160e01b1461113157604051632bfa23e760e11b81526001600160a01b0386166004820152602401610614565b60605f6116e183611712565b6040805160208082528183019092529192505f91906020820181803683375050509182525060208101929092525090565b5f60ff8216601f81111561052457604051632cd44ac360e21b815260040160405180910390fd5b6001600160a01b0381168114610e5e575f80fd5b5f806040838503121561175e575f80fd5b823561176981611739565b946020939093013593505050565b6001600160e01b031981168114610e5e575f80fd5b5f6020828403121561179c575f80fd5b81356117a781611777565b9392505050565b5f602082840312156117be575f80fd5b5035919050565b5f5b838110156117df5781810151838201526020016117c7565b50505f910152565b5f81518084526117fe8160208601602086016117c5565b601f01601f19169290920160200192915050565b602081525f6117a760208301846117e7565b634e487b7160e01b5f52604160045260245ffd5b604051610100810167ffffffffffffffff8111828210171561185c5761185c611824565b60405290565b604051601f8201601f1916810167ffffffffffffffff8111828210171561188b5761188b611824565b604052919050565b5f67ffffffffffffffff8211156118ac576118ac611824565b5060051b60200190565b5f82601f8301126118c5575f80fd5b813560206118da6118d583611893565b611862565b8083825260208201915060208460051b8701019350868411156118fb575f80fd5b602086015b848110156119175780358352918301918301611900565b509695505050505050565b5f67ffffffffffffffff82111561193b5761193b611824565b50601f01601f191660200190565b5f82601f830112611958575f80fd5b81356119666118d582611922565b81815284602083860101111561197a575f80fd5b816020850160208301375f918101602001919091529392505050565b5f805f805f60a086880312156119aa575f80fd5b85356119b581611739565b945060208601356119c581611739565b9350604086013567ffffffffffffffff808211156119e1575f80fd5b6119ed89838a016118b6565b94506060880135915080821115611a02575f80fd5b611a0e89838a016118b6565b93506080880135915080821115611a23575f80fd5b50611a3088828901611949565b9150509295509295909350565b5f8060408385031215611a4e575f80fd5b823591506020830135611a6081611739565b809150509250929050565b5f8060408385031215611a7c575f80fd5b823567ffffffffffffffff80821115611a93575f80fd5b818501915085601f830112611aa6575f80fd5b81356020611ab66118d583611893565b82815260059290921b84018101918181019089841115611ad4575f80fd5b948201945b83861015611afb578535611aec81611739565b82529482019490820190611ad9565b96505086013592505080821115611b10575f80fd5b50611b1d858286016118b6565b9150509250929050565b5f815180845260208085019450602084015f5b83811015611b5657815187529582019590820190600101611b3a565b509495945050505050565b602081525f6117a76020830184611b27565b60ff60f81b8816815260e060208201525f611b9160e08301896117e7565b8281036040840152611ba381896117e7565b606084018890526001600160a01b038716608085015260a0840186905283810360c08501529050611bd48185611b27565b9a9950505050505050505050565b5f805f805f805f60e0888a031215611bf8575f80fd5b873596506020880135955060408801359450606088013593506080880135925060a0880135915060c0880135611c2d81611739565b8091505092959891949750929550565b8015158114610e5e575f80fd5b5f8060408385031215611c5b575f80fd5b8235611c6681611739565b91506020830135611a6081611c3d565b5f805f60608486031215611c88575f80fd5b505081359360208301359350604090920135919050565b5f8060408385031215611cb0575f80fd5b8235611cbb81611739565b91506020830135611a6081611739565b5f805f805f60a08688031215611cdf575f80fd5b8535611cea81611739565b94506020860135611cfa81611739565b93506040860135925060608601359150608086013567ffffffffffffffff811115611d23575f80fd5b611a3088828901611949565b600181811c90821680611d4357607f821691505b602082108103611d6157634e487b7160e01b5f52602260045260245ffd5b50919050565b634e487b7160e01b5f52603260045260245ffd5b5f82601f830112611d8a575f80fd5b8151611d986118d582611922565b818152846020838601011115611dac575f80fd5b611dbd8260208301602087016117c5565b949350505050565b8051611dd081611c3d565b919050565b805167ffffffffffffffff81168114611dd0575f80fd5b8051611dd081611739565b5f60208284031215611e07575f80fd5b815167ffffffffffffffff80821115611e1e575f80fd5b908301906101008286031215611e32575f80fd5b611e3a611838565b8251815260208301516020820152604083015182811115611e59575f80fd5b611e6587828601611d7b565b604083015250611e7760608401611dc5565b6060820152611e8860808401611dd5565b6080820152611e9960a08401611dd5565b60a0820152611eaa60c08401611dd5565b60c0820152611ebb60e08401611dec565b60e082015295945050505050565b634e487b7160e01b5f52601160045260245ffd5b8181038181111561052457610524611ec9565b8082018082111561052457610524611ec9565b604081525f611f156040830185611b27565b8281036020840152611f278185611b27565b95945050505050565b6001600160a01b03868116825285166020820152604081018490526060810183905260a0608082018190525f90611f69908301846117e7565b979650505050505050565b5f60208284031215611f84575f80fd5b81516117a781611777565b6001600160a01b0386811682528516602082015260a0604082018190525f90611fba90830186611b27565b8281036060840152611fcc8186611b27565b90508281036080840152611fe081856117e7565b9897505050505050505056fea26469706673582212203213bdcf2c70b92a609ded638f8eccd30b03760cf27cb8df0533e8079fdfeec864736f6c63430008180033","linkReferences":{}},"methodIdentifiers":{"DEFAULT_ADMIN_ROLE()":"a217fddf","ISSUANCE_TYPEHASH()":"4b7f7b4a","PROJECT_ADMIN_ROLE()":"41c04d5e","VERIFIER_ROLE()":"e7705db6","balanceOf(address,uint256)":"00fdd58e","balanceOfBatch(address[],uint256[])":"4e1273f4","configureIssuance(uint256,bytes32,bytes32,uint256,uint256,uint256,address)":"8539ab3e","eip712Domain()":"84b0196e","getRoleAdmin(bytes32)":"248a9ca3","getTokenStats(uint256)":"c5829514","grantRole(bytes32,address)":"2f2ff15d","hasRole(bytes32,address)":"91d14854","isApprovedForAll(address,address)":"e985e9c5","issuanceConfigs(uint256)":"7436f584","methodRegistry()":"6f9fbca4","renounceRole(bytes32,address)":"36568abe","retire(uint256,uint256,bytes32)":"dbcaf3e5","revokeRole(bytes32,address)":"d547741f","safeBatchTransferFrom(address,address,uint256[],uint256[],bytes)":"2eb2c2d6","safeTransferFrom(address,address,uint256,uint256,bytes)":"f242432a","setApprovalForAll(address,bool)":"a22cb465","supportsInterface(bytes4)":"01ffc9a7","tokenURIs(uint256)":"6c8b703f","totalRetired(uint256)":"5abe3437","totalSupply(uint256)":"bd85b039","uri(uint256)":"0e89341c"},"id":46}