{"abi":[{"type":"constructor","inputs":[],"stateMutability":"nonpayable"},{"type":"function","name":"DEFAULT_ADMIN_ROLE","inputs":[],"outputs":[{"name":"","type":"bytes32","internalType":"bytes32"}],"stateMutability":"view"},{"type":"function","name":"GOVERNANCE_ROLE","inputs":[],"outputs":[{"name":"","type":"bytes32","internalType":"bytes32"}],"stateMutability":"view"},{"type":"function","name":"TECHNICAL_COMMITTEE_ROLE","inputs":[],"outputs":[{"name":"","type":"bytes32","internalType":"bytes32"}],"stateMutability":"view"},{"type":"function","name":"allMethodIds","inputs":[{"name":"","type":"uint256","internalType":"uint256"}],"outputs":[{"name":"","type":"bytes32","internalType":"bytes32"}],"stateMutability":"view"},{"type":"function","name":"deactivateMethod","inputs":[{"name":"methodId","type":"bytes32","internalType":"bytes32"}],"outputs":[],"stateMutability":"nonpayable"},{"type":"function","name":"getAllMethodIds","inputs":[],"outputs":[{"name":"","type":"bytes32[]","internalType":"bytes32[]"}],"stateMutability":"view"},{"type":"function","name":"getMethodByName","inputs":[{"name":"name","type":"string","internalType":"string"}],"outputs":[{"name":"","type":"tuple","internalType":"struct MethodRegistry.MethodSpec","components":[{"name":"id","type":"bytes32","internalType":"bytes32"},{"name":"hash","type":"bytes32","internalType":"bytes32"},{"name":"uri","type":"string","internalType":"string"},{"name":"active","type":"bool","internalType":"bool"},{"name":"majorVersion","type":"uint64","internalType":"uint64"},{"name":"minorVersion","type":"uint64","internalType":"uint64"},{"name":"createdAt","type":"uint64","internalType":"uint64"},{"name":"proposedBy","type":"address","internalType":"address"}]}],"stateMutability":"view"},{"type":"function","name":"getRoleAdmin","inputs":[{"name":"role","type":"bytes32","internalType":"bytes32"}],"outputs":[{"name":"","type":"bytes32","internalType":"bytes32"}],"stateMutability":"view"},{"type":"function","name":"grantRole","inputs":[{"name":"role","type":"bytes32","internalType":"bytes32"},{"name":"account","type":"address","internalType":"address"}],"outputs":[],"stateMutability":"nonpayable"},{"type":"function","name":"hasRole","inputs":[{"name":"role","type":"bytes32","internalType":"bytes32"},{"name":"account","type":"address","internalType":"address"}],"outputs":[{"name":"","type":"bool","internalType":"bool"}],"stateMutability":"view"},{"type":"function","name":"isActive","inputs":[{"name":"methodId","type":"bytes32","internalType":"bytes32"}],"outputs":[{"name":"","type":"bool","internalType":"bool"}],"stateMutability":"view"},{"type":"function","name":"methodExists","inputs":[{"name":"methodId","type":"bytes32","internalType":"bytes32"}],"outputs":[{"name":"","type":"bool","internalType":"bool"}],"stateMutability":"view"},{"type":"function","name":"methodNameToId","inputs":[{"name":"","type":"string","internalType":"string"}],"outputs":[{"name":"","type":"bytes32","internalType":"bytes32"}],"stateMutability":"view"},{"type":"function","name":"methods","inputs":[{"name":"methodId","type":"bytes32","internalType":"bytes32"}],"outputs":[{"name":"","type":"tuple","internalType":"struct MethodRegistry.MethodSpec","components":[{"name":"id","type":"bytes32","internalType":"bytes32"},{"name":"hash","type":"bytes32","internalType":"bytes32"},{"name":"uri","type":"string","internalType":"string"},{"name":"active","type":"bool","internalType":"bool"},{"name":"majorVersion","type":"uint64","internalType":"uint64"},{"name":"minorVersion","type":"uint64","internalType":"uint64"},{"name":"createdAt","type":"uint64","internalType":"uint64"},{"name":"proposedBy","type":"address","internalType":"address"}]}],"stateMutability":"view"},{"type":"function","name":"reactivateMethod","inputs":[{"name":"methodId","type":"bytes32","internalType":"bytes32"}],"outputs":[],"stateMutability":"nonpayable"},{"type":"function","name":"registerMethod","inputs":[{"name":"methodId","type":"bytes32","internalType":"bytes32"},{"name":"methodHash","type":"bytes32","internalType":"bytes32"},{"name":"uri","type":"string","internalType":"string"},{"name":"majorVersion","type":"uint64","internalType":"uint64"},{"name":"minorVersion","type":"uint64","internalType":"uint64"},{"name":"name","type":"string","internalType":"string"}],"outputs":[],"stateMutability":"nonpayable"},{"type":"function","name":"renounceRole","inputs":[{"name":"role","type":"bytes32","internalType":"bytes32"},{"name":"callerConfirmation","type":"address","internalType":"address"}],"outputs":[],"stateMutability":"nonpayable"},{"type":"function","name":"revokeRole","inputs":[{"name":"role","type":"bytes32","internalType":"bytes32"},{"name":"account","type":"address","internalType":"address"}],"outputs":[],"stateMutability":"nonpayable"},{"type":"function","name":"supportsInterface","inputs":[{"name":"interfaceId","type":"bytes4","internalType":"bytes4"}],"outputs":[{"name":"","type":"bool","internalType":"bool"}],"stateMutability":"view"},{"type":"event","name":"MethodDeactivated","inputs":[{"name":"methodId","type":"bytes32","indexed":true,"internalType":"bytes32"},{"name":"deactivatedBy","type":"address","indexed":false,"internalType":"address"}],"anonymous":false},{"type":"event","name":"MethodReactivated","inputs":[{"name":"methodId","type":"bytes32","indexed":true,"internalType":"bytes32"},{"name":"reactivatedBy","type":"address","indexed":false,"internalType":"address"}],"anonymous":false},{"type":"event","name":"MethodRegistered","inputs":[{"name":"methodId","type":"bytes32","indexed":true,"internalType":"bytes32"},{"name":"hash","type":"bytes32","indexed":false,"internalType":"bytes32"},{"name":"uri","type":"string","indexed":false,"internalType":"string"},{"name":"majorVersion","type":"uint64","indexed":false,"internalType":"uint64"},{"name":"minorVersion","type":"uint64","indexed":false,"internalType":"uint64"},{"name":"proposedBy","type":"address","indexed":false,"internalType":"address"}],"anonymous":false},{"type":"event","name":"RoleAdminChanged","inputs":[{"name":"role","type":"bytes32","indexed":true,"internalType":"bytes32"},{"name":"previousAdminRole","type":"bytes32","indexed":true,"internalType":"bytes32"},{"name":"newAdminRole","type":"bytes32","indexed":true,"internalType":"bytes32"}],"anonymous":false},{"type":"event","name":"RoleGranted","inputs":[{"name":"role","type":"bytes32","indexed":true,"internalType":"bytes32"},{"name":"account","type":"address","indexed":true,"internalType":"address"},{"name":"sender","type":"address","indexed":true,"internalType":"address"}],"anonymous":false},{"type":"event","name":"RoleRevoked","inputs":[{"name":"role","type":"bytes32","indexed":true,"internalType":"bytes32"},{"name":"account","type":"address","indexed":true,"internalType":"address"},{"name":"sender","type":"address","indexed":true,"internalType":"address"}],"anonymous":false},{"type":"error","name":"AccessControlBadConfirmation","inputs":[]},{"type":"error","name":"AccessControlUnauthorizedAccount","inputs":[{"name":"account","type":"address","internalType":"address"},{"name":"neededRole","type":"bytes32","internalType":"bytes32"}]}],"bytecode":{"object":"0x608060405234801561000f575f80fd5b5061001a5f33610076565b506100457f0902e7695fd7de2415b1a705a86fcf6e661c972c253863a8ebe30b57df27342b33610076565b506100707f71840dc4906352362b0cdaf79870196c8e42acafade72d5d5a6d59291253ceb133610076565b5061011f565b5f828152602081815260408083206001600160a01b038516845290915281205460ff16610116575f838152602081815260408083206001600160a01b03861684529091529020805460ff191660011790556100ce3390565b6001600160a01b0316826001600160a01b0316847f2f8788117e7eff1d82e926ec794901d17c78024a50270940304540a733656f0d60405160405180910390a4506001610119565b505f5b92915050565b611470806200012d5f395ff3fe608060405234801561000f575f80fd5b506004361061011c575f3560e01c80636c565b27116100a9578063a9e948941161006e578063a9e94894146102ab578063d547741f146102be578063dd9fa115146102d1578063f36c8f5c146102e6578063fac789d1146102fa575f80fd5b80636c565b271461022c5780638290a8b31461023f57806391d148541461026657806399556b5e14610279578063a217fddf146102a4575f80fd5b806336568abe116100ef57806336568abe146101a057806351f89b59146101b35780635528325c146101d4578063599776a7146101f45780635c36901c14610207575f80fd5b806301ffc9a7146101205780630c4ccbb614610148578063248a9ca31461015d5780632f2ff15d1461018d575b5f80fd5b61013361012e366004610ed7565b61030d565b60405190151581526020015b60405180910390f35b61015b610156366004610f05565b610343565b005b61017f61016b366004610f05565b5f9081526020819052604090206001015490565b60405190815260200161013f565b61015b61019b366004610f1c565b610406565b61015b6101ae366004610f1c565b610430565b6101336101c1366004610f05565b5f90815260016020526040902054151590565b6101e76101e2366004610f05565b610468565b60405161013f9190610f55565b61015b610202366004611090565b61058a565b610133610215366004610f05565b5f9081526001602052604090206003015460ff1690565b61015b61023a366004610f05565b6109f9565b61017f7f0902e7695fd7de2415b1a705a86fcf6e661c972c253863a8ebe30b57df27342b81565b610133610274366004610f1c565b610b06565b61017f610287366004611143565b805160208183018101805160028252928201919093012091525481565b61017f5f81565b61017f6102b9366004610f05565b610b2e565b61015b6102cc366004610f1c565b610b4d565b6102d9610b71565b60405161013f91906111ed565b61017f5f8051602061141b83398151915281565b6101e7610308366004611230565b610bc7565b5f6001600160e01b03198216637965db0b60e01b148061033d57506301ffc9a760e01b6001600160e01b03198316145b92915050565b5f8051602061141b83398151915261035a81610d51565b5f8281526001602052604090206003015460ff166103b35760405162461bcd60e51b81526020600482015260116024820152706d6574686f642d6e6f742d61637469766560781b60448201526064015b60405180910390fd5b5f82815260016020908152604091829020600301805460ff19169055905133815283917fb6bb2775d01160fd1a09601484cdce47f61ae41c2860794682aaaa5f8c167c4291015b60405180910390a25050565b5f8281526020819052604090206001015461042081610d51565b61042a8383610d5e565b50505050565b6001600160a01b03811633146104595760405163334bd91960e11b815260040160405180910390fd5b6104638282610ded565b505050565b610470610e93565b60015f8381526020019081526020015f20604051806101000160405290815f8201548152602001600182015481526020016002820180546104b09061126e565b80601f01602080910402602001604051908101604052809291908181526020018280546104dc9061126e565b80156105275780601f106104fe57610100808354040283529160200191610527565b820191905f5260205f20905b81548152906001019060200180831161050a57829003601f168201915b5050509183525050600382015460ff8116151560208301526001600160401b03610100820481166040840152600160481b820481166060840152600160881b9091041660808201526004909101546001600160a01b031660a09091015292915050565b876105cb5760405162461bcd60e51b81526020600482015260116024820152701a5b9d985b1a590b5b595d1a1bd90b5a59607a1b60448201526064016103aa565b8661060e5760405162461bcd60e51b81526020600482015260136024820152720d2dcecc2d8d2c85adacae8d0dec85ad0c2e6d606b1b60448201526064016103aa565b846106495760405162461bcd60e51b815260206004820152600b60248201526a696e76616c69642d75726960a81b60448201526064016103aa565b5f8881526001602052604090206003015460ff161561069a5760405162461bcd60e51b815260206004820152600d60248201526c6d6574686f642d65786973747360981b60448201526064016103aa565b6001600160401b03841615610707576106c05f8051602061141b83398151915233610b06565b6107025760405162461bcd60e51b815260206004820152601360248201527219dbdd995c9b985b98d94b5c995c5d5a5c9959606a1b60448201526064016103aa565b61077d565b6107317f0902e7695fd7de2415b1a705a86fcf6e661c972c253863a8ebe30b57df27342b33610b06565b61077d5760405162461bcd60e51b815260206004820152601760248201527f746563682d636f6d6d69747465652d726571756972656400000000000000000060448201526064016103aa565b60405180610100016040528089815260200188815260200187878080601f0160208091040260200160405190810160405280939291908181526020018383808284375f9201829052509385525050600160208085018290526001600160401b03808b166040808801919091528a821660608801524290911660808701523360a0909601959095528d8452818152928490208551815592850151908301555090820151600282019061082e90826112f1565b506060820151600382018054608085015160a086015160c087015168ffffffffffffffffff1990931694151568ffffffffffffffff001916949094176101006001600160401b03928316021778ffffffffffffffffffffffffffffffff0000000000000000001916600160481b9482169490940267ffffffffffffffff60881b191693909317600160881b939091169290920291909117905560e090910151600490910180546001600160a01b0319166001600160a01b039092169190911790558015610977575f801b6002838360405161090a9291906113b0565b908152602001604051809103902054146109535760405162461bcd60e51b815260206004820152600a6024820152693730b6b296ba30b5b2b760b11b60448201526064016103aa565b87600283836040516109669291906113b0565b908152604051908190036020019020555b600380546001810182555f919091527fc2575a0e9e593c00f959f8c92f12db2869c3395a3b0502d05e2516446f71f85b0188905560405188907f5bbf2428750505c3a1ef2c07e4b29f7e4bae64c533c3cf2b2b2dfaeea85cd713906109e7908a908a908a908a908a9033906113bf565b60405180910390a25050505050505050565b5f8051602061141b833981519152610a1081610d51565b5f82815260016020526040902054610a5e5760405162461bcd60e51b81526020600482015260116024820152706d6574686f642d6e6f742d65786973747360781b60448201526064016103aa565b5f8281526001602052604090206003015460ff1615610ab75760405162461bcd60e51b81526020600482015260156024820152746d6574686f642d616c72656164792d61637469766560581b60448201526064016103aa565b5f82815260016020818152604092839020600301805460ff1916909217909155905133815283917fe1580bacac508a766004c4c7ee9eaf563ff9756d756d3cb267b49e57116b532c91016103fa565b5f918252602082815260408084206001600160a01b0393909316845291905290205460ff1690565b60038181548110610b3d575f80fd5b5f91825260209091200154905081565b5f82815260208190526040902060010154610b6781610d51565b61042a8383610ded565b60606003805480602002602001604051908101604052809291908181526020018280548015610bbd57602002820191905f5260205f20905b815481526020019060010190808311610ba9575b5050505050905090565b610bcf610e93565b5f60028484604051610be29291906113b0565b90815260405190819003602001902054905080610c345760405162461bcd60e51b815260206004820152601060248201526f1b595d1a1bd90b5b9bdd0b599bdd5b9960821b60448201526064016103aa565b60015f8281526020019081526020015f20604051806101000160405290815f820154815260200160018201548152602001600282018054610c749061126e565b80601f0160208091040260200160405190810160405280929190818152602001828054610ca09061126e565b8015610ceb5780601f10610cc257610100808354040283529160200191610ceb565b820191905f5260205f20905b815481529060010190602001808311610cce57829003601f168201915b5050509183525050600382015460ff8116151560208301526001600160401b03610100820481166040840152600160481b820481166060840152600160881b9091041660808201526004909101546001600160a01b031660a09091015291505092915050565b610d5b8133610e56565b50565b5f610d698383610b06565b610de6575f838152602081815260408083206001600160a01b03861684529091529020805460ff19166001179055610d9e3390565b6001600160a01b0316826001600160a01b0316847f2f8788117e7eff1d82e926ec794901d17c78024a50270940304540a733656f0d60405160405180910390a450600161033d565b505f61033d565b5f610df88383610b06565b15610de6575f838152602081815260408083206001600160a01b0386168085529252808320805460ff1916905551339286917ff6391f5c32d9c69d2a47ea670b442974b53935d1edc7fd64eb21e047a839171b9190a450600161033d565b610e608282610b06565b610e8f5760405163e2517d3f60e01b81526001600160a01b0382166004820152602481018390526044016103aa565b5050565b60408051610100810182525f8082526020820181905260609282018390529181018290526080810182905260a0810182905260c0810182905260e081019190915290565b5f60208284031215610ee7575f80fd5b81356001600160e01b031981168114610efe575f80fd5b9392505050565b5f60208284031215610f15575f80fd5b5035919050565b5f8060408385031215610f2d575f80fd5b8235915060208301356001600160a01b0381168114610f4a575f80fd5b809150509250929050565b5f6020808352835160208401526020840151604084015260408401516101008060608601528151806101208701525f5b81811015610fa25783810185015187820161014001528401610f85565b5061014093505f84828801015260608701519250610fc4608087018415159052565b60808701516001600160401b03811660a0880152925060a08701516001600160401b03811660c0880152925060c08701516001600160401b03811660e0880152925060e08701516001600160a01b038116878401529250601f01601f191694909401909101949350505050565b5f8083601f840112611041575f80fd5b5081356001600160401b03811115611057575f80fd5b60208301915083602082850101111561106e575f80fd5b9250929050565b80356001600160401b038116811461108b575f80fd5b919050565b5f805f805f805f8060c0898b0312156110a7575f80fd5b883597506020890135965060408901356001600160401b03808211156110cb575f80fd5b6110d78c838d01611031565b90985096508691506110eb60608c01611075565b95506110f960808c01611075565b945060a08b013591508082111561110e575f80fd5b5061111b8b828c01611031565b999c989b5096995094979396929594505050565b634e487b7160e01b5f52604160045260245ffd5b5f60208284031215611153575f80fd5b81356001600160401b0380821115611169575f80fd5b818401915084601f83011261117c575f80fd5b81358181111561118e5761118e61112f565b604051601f8201601f19908116603f011681019083821181831017156111b6576111b661112f565b816040528281528760208487010111156111ce575f80fd5b826020860160208301375f928101602001929092525095945050505050565b602080825282518282018190525f9190848201906040850190845b8181101561122457835183529284019291840191600101611208565b50909695505050505050565b5f8060208385031215611241575f80fd5b82356001600160401b03811115611256575f80fd5b61126285828601611031565b90969095509350505050565b600181811c9082168061128257607f821691505b6020821081036112a057634e487b7160e01b5f52602260045260245ffd5b50919050565b601f82111561046357805f5260205f20601f840160051c810160208510156112cb5750805b601f840160051c820191505b818110156112ea575f81556001016112d7565b5050505050565b81516001600160401b0381111561130a5761130a61112f565b61131e81611318845461126e565b846112a6565b602080601f831160018114611351575f841561133a5750858301515b5f19600386901b1c1916600185901b1785556113a8565b5f85815260208120601f198616915b8281101561137f57888601518255948401946001909101908401611360565b508582101561139c57878501515f19600388901b60f8161c191681555b505060018460011b0185555b505050505050565b818382375f9101908152919050565b86815260a060208201528460a0820152848660c08301375f60c08683018101919091526001600160401b0394851660408301529290931660608401526001600160a01b03166080830152601f909201601f191601019291505056fe71840dc4906352362b0cdaf79870196c8e42acafade72d5d5a6d59291253ceb1a26469706673582212203f8cc7e093f81569498e456fa5ec97addea58725fc4e570fe1d41efa3ffe766164736f6c63430008180033","linkReferences":{}},"methodIdentifiers":{"DEFAULT_ADMIN_ROLE()":"a217fddf","GOVERNANCE_ROLE()":"f36c8f5c","TECHNICAL_COMMITTEE_ROLE()":"8290a8b3","allMethodIds(uint256)":"a9e94894","deactivateMethod(bytes32)":"0c4ccbb6","getAllMethodIds()":"dd9fa115","getMethodByName(string)":"fac789d1","getRoleAdmin(bytes32)":"248a9ca3","grantRole(bytes32,address)":"2f2ff15d","hasRole(bytes32,address)":"91d14854","isActive(bytes32)":"5c36901c","methodExists(bytes32)":"51f89b59","methodNameToId(string)":"99556b5e","methods(bytes32)":"5528325c","reactivateMethod(bytes32)":"6c565b27","registerMethod(bytes32,bytes32,string,uint64,uint64,string)":"599776a7","renounceRole(bytes32,address)":"36568abe","revokeRole(bytes32,address)":"d547741f","supportsInterface(bytes4)":"01ffc9a7"},"id":50}