{"abi":[{"type":"constructor","inputs":[],"stateMutability":"nonpayable"},{"type":"function","name":"ALLOCATION_ESCROW_ROLE","inputs":[],"outputs":[{"name":"","type":"bytes32","internalType":"bytes32"}],"stateMutability":"view"},{"type":"function","name":"DEFAULT_ADMIN_ROLE","inputs":[],"outputs":[{"name":"","type":"bytes32","internalType":"bytes32"}],"stateMutability":"view"},{"type":"function","name":"PROJECT_ADMIN_ROLE","inputs":[],"outputs":[{"name":"","type":"bytes32","internalType":"bytes32"}],"stateMutability":"view"},{"type":"function","name":"configureRepayment","inputs":[{"name":"projectId","type":"uint256","internalType":"uint256"},{"name":"forwardPrincipal","type":"uint256","internalType":"uint256"},{"name":"repaymentCap","type":"uint256","internalType":"uint256"},{"name":"platformFeeBps","type":"uint256","internalType":"uint256"},{"name":"platformFeeCap","type":"uint256","internalType":"uint256"},{"name":"funder","type":"address","internalType":"address"},{"name":"stewardOrPool","type":"address","internalType":"address"},{"name":"platformTreasury","type":"address","internalType":"address"},{"name":"paymentToken","type":"address","internalType":"contract IERC20"},{"name":"policy","type":"uint8","internalType":"enum RepaymentEscrow.RepaymentPolicy"}],"outputs":[],"stateMutability":"nonpayable"},{"type":"function","name":"getRepaymentStatus","inputs":[{"name":"projectId","type":"uint256","internalType":"uint256"}],"outputs":[{"name":"","type":"tuple","internalType":"struct RepaymentEscrow.RepaymentConfig","components":[{"name":"forwardPrincipal","type":"uint256","internalType":"uint256"},{"name":"repaymentCap","type":"uint256","internalType":"uint256"},{"name":"platformFeeBps","type":"uint256","internalType":"uint256"},{"name":"platformFeeCap","type":"uint256","internalType":"uint256"},{"name":"funder","type":"address","internalType":"address"},{"name":"stewardOrPool","type":"address","internalType":"address"},{"name":"platformTreasury","type":"address","internalType":"address"},{"name":"paymentToken","type":"address","internalType":"contract IERC20"},{"name":"policy","type":"uint8","internalType":"enum RepaymentEscrow.RepaymentPolicy"},{"name":"paidToFunder","type":"uint256","internalType":"uint256"},{"name":"platformFeesPaid","type":"uint256","internalType":"uint256"},{"name":"configured","type":"bool","internalType":"bool"}]}],"stateMutability":"view"},{"type":"function","name":"getRoleAdmin","inputs":[{"name":"role","type":"bytes32","internalType":"bytes32"}],"outputs":[{"name":"","type":"bytes32","internalType":"bytes32"}],"stateMutability":"view"},{"type":"function","name":"grantRole","inputs":[{"name":"role","type":"bytes32","internalType":"bytes32"},{"name":"account","type":"address","internalType":"address"}],"outputs":[],"stateMutability":"nonpayable"},{"type":"function","name":"hasRole","inputs":[{"name":"role","type":"bytes32","internalType":"bytes32"},{"name":"account","type":"address","internalType":"address"}],"outputs":[{"name":"","type":"bool","internalType":"bool"}],"stateMutability":"view"},{"type":"function","name":"isConsiderationProcessed","inputs":[{"name":"projectId","type":"uint256","internalType":"uint256"},{"name":"considerationRef","type":"bytes32","internalType":"bytes32"}],"outputs":[{"name":"","type":"bool","internalType":"bool"}],"stateMutability":"view"},{"type":"function","name":"notifyProceeds","inputs":[{"name":"projectId","type":"uint256","internalType":"uint256"},{"name":"amount","type":"uint256","internalType":"uint256"},{"name":"considerationRef","type":"bytes32","internalType":"bytes32"}],"outputs":[],"stateMutability":"nonpayable"},{"type":"function","name":"processedConsiderations","inputs":[{"name":"","type":"uint256","internalType":"uint256"},{"name":"","type":"bytes32","internalType":"bytes32"}],"outputs":[{"name":"","type":"bool","internalType":"bool"}],"stateMutability":"view"},{"type":"function","name":"renounceRole","inputs":[{"name":"role","type":"bytes32","internalType":"bytes32"},{"name":"callerConfirmation","type":"address","internalType":"address"}],"outputs":[],"stateMutability":"nonpayable"},{"type":"function","name":"repaymentConfigs","inputs":[{"name":"","type":"uint256","internalType":"uint256"}],"outputs":[{"name":"forwardPrincipal","type":"uint256","internalType":"uint256"},{"name":"repaymentCap","type":"uint256","internalType":"uint256"},{"name":"platformFeeBps","type":"uint256","internalType":"uint256"},{"name":"platformFeeCap","type":"uint256","internalType":"uint256"},{"name":"funder","type":"address","internalType":"address"},{"name":"stewardOrPool","type":"address","internalType":"address"},{"name":"platformTreasury","type":"address","internalType":"address"},{"name":"paymentToken","type":"address","internalType":"contract IERC20"},{"name":"policy","type":"uint8","internalType":"enum RepaymentEscrow.RepaymentPolicy"},{"name":"paidToFunder","type":"uint256","internalType":"uint256"},{"name":"platformFeesPaid","type":"uint256","internalType":"uint256"},{"name":"configured","type":"bool","internalType":"bool"}],"stateMutability":"view"},{"type":"function","name":"revokeRole","inputs":[{"name":"role","type":"bytes32","internalType":"bytes32"},{"name":"account","type":"address","internalType":"address"}],"outputs":[],"stateMutability":"nonpayable"},{"type":"function","name":"supportsInterface","inputs":[{"name":"interfaceId","type":"bytes4","internalType":"bytes4"}],"outputs":[{"name":"","type":"bool","internalType":"bool"}],"stateMutability":"view"},{"type":"event","name":"PaidFunder","inputs":[{"name":"projectId","type":"uint256","indexed":true,"internalType":"uint256"},{"name":"amount","type":"uint256","indexed":false,"internalType":"uint256"}],"anonymous":false},{"type":"event","name":"PaidPlatform","inputs":[{"name":"projectId","type":"uint256","indexed":true,"internalType":"uint256"},{"name":"amount","type":"uint256","indexed":false,"internalType":"uint256"}],"anonymous":false},{"type":"event","name":"PaidSteward","inputs":[{"name":"projectId","type":"uint256","indexed":true,"internalType":"uint256"},{"name":"amount","type":"uint256","indexed":false,"internalType":"uint256"}],"anonymous":false},{"type":"event","name":"ProceedsReceived","inputs":[{"name":"projectId","type":"uint256","indexed":true,"internalType":"uint256"},{"name":"amount","type":"uint256","indexed":false,"internalType":"uint256"},{"name":"considerationRef","type":"bytes32","indexed":false,"internalType":"bytes32"}],"anonymous":false},{"type":"event","name":"RoleAdminChanged","inputs":[{"name":"role","type":"bytes32","indexed":true,"internalType":"bytes32"},{"name":"previousAdminRole","type":"bytes32","indexed":true,"internalType":"bytes32"},{"name":"newAdminRole","type":"bytes32","indexed":true,"internalType":"bytes32"}],"anonymous":false},{"type":"event","name":"RoleGranted","inputs":[{"name":"role","type":"bytes32","indexed":true,"internalType":"bytes32"},{"name":"account","type":"address","indexed":true,"internalType":"address"},{"name":"sender","type":"address","indexed":true,"internalType":"address"}],"anonymous":false},{"type":"event","name":"RoleRevoked","inputs":[{"name":"role","type":"bytes32","indexed":true,"internalType":"bytes32"},{"name":"account","type":"address","indexed":true,"internalType":"address"},{"name":"sender","type":"address","indexed":true,"internalType":"address"}],"anonymous":false},{"type":"error","name":"AccessControlBadConfirmation","inputs":[]},{"type":"error","name":"AccessControlUnauthorizedAccount","inputs":[{"name":"account","type":"address","internalType":"address"},{"name":"neededRole","type":"bytes32","internalType":"bytes32"}]},{"type":"error","name":"ReentrancyGuardReentrantCall","inputs":[]}],"bytecode":{"object":"0x608060405234801561000f575f80fd5b506001805561001e5f33610024565b506100cd565b5f828152602081815260408083206001600160a01b038516845290915281205460ff166100c4575f838152602081815260408083206001600160a01b03861684529091529020805460ff1916600117905561007c3390565b6001600160a01b0316826001600160a01b0316847f2f8788117e7eff1d82e926ec794901d17c78024a50270940304540a733656f0d60405160405180910390a45060016100c7565b505f5b92915050565b610e0a806100da5f395ff3fe608060405234801561000f575f80fd5b50600436106100f0575f3560e01c80635507831411610093578063a217fddf11610063578063a217fddf146102cf578063b23d0979146102d6578063c8b8236c14610303578063d547741f14610316575f80fd5b806355078314146101ce5780635e721ea6146101fb5780638ba57a5f1461022257806391d14854146102bc575f80fd5b80632f2ff15d116100ce5780632f2ff15d1461016157806336568abe1461017457806341c04d5e14610187578063500f0914146101ae575f80fd5b806301ffc9a7146100f4578063248a9ca31461011c5780632bd9a10d1461014c575b5f80fd5b610107610102366004610ae1565b610329565b60405190151581526020015b60405180910390f35b61013e61012a366004610b0f565b5f9081526020819052604090206001015490565b604051908152602001610113565b61015f61015a366004610b3a565b61035f565b005b61015f61016f366004610bda565b610606565b61015f610182366004610bda565b610630565b61013e7f52eafc11f6f81f86878bffd31109a0d92f37506527754f00788853ff9f63b13081565b6101c16101bc366004610b0f565b610668565b6040516101139190610c3c565b6101076101dc366004610d11565b5f91825260036020908152604080842092845291905290205460ff1690565b61013e7f01f1b482e21ddb49f4dc6f994b01f151548858bd504322dbc949fcbe9f8e439381565b6102a4610230366004610b0f565b600260208190525f918252604090912080546001820154928201546003830154600484015460058501546006860154600787015460088801546009890154600a90990154979998969795966001600160a01b039586169694861695938416949383169360ff600160a01b909404841693168c565b6040516101139c9b9a99989796959493929190610d31565b6101076102ca366004610bda565b6107a2565b61013e5f81565b6101076102e4366004610d11565b600360209081525f928352604080842090915290825290205460ff1681565b61015f610311366004610dab565b6107ca565b61015f610324366004610bda565b610951565b5f6001600160e01b03198216637965db0b60e01b148061035957506301ffc9a760e01b6001600160e01b03198316145b92915050565b7f52eafc11f6f81f86878bffd31109a0d92f37506527754f00788853ff9f63b13061038981610975565b5f8b8152600260205260409020600a015460ff16156103e45760405162461bcd60e51b8152602060048201526012602482015271185b1c9958591e4b58dbdb999a59dd5c995960721b60448201526064015b60405180910390fd5b5f8a116104275760405162461bcd60e51b81526020600482015260116024820152701a5b9d985b1a590b5c1c9a5b98da5c185b607a1b60448201526064016103db565b6040518061018001604052808b81526020018a8152602001898152602001888152602001876001600160a01b03168152602001866001600160a01b03168152602001856001600160a01b03168152602001846001600160a01b0316815260200183600281111561049957610499610c08565b81526020015f81526020015f81526020016001151581525060025f8d81526020019081526020015f205f820151815f01556020820151816001015560408201518160020155606082015181600301556080820151816004015f6101000a8154816001600160a01b0302191690836001600160a01b0316021790555060a0820151816005015f6101000a8154816001600160a01b0302191690836001600160a01b0316021790555060c0820151816006015f6101000a8154816001600160a01b0302191690836001600160a01b0316021790555060e0820151816007015f6101000a8154816001600160a01b0302191690836001600160a01b031602179055506101008201518160070160146101000a81548160ff021916908360028111156105c3576105c3610c08565b02179055506101208201516008820155610140820151600982015561016090910151600a909101805460ff19169115159190911790555050505050505050505050565b5f8281526020819052604090206001015461062081610975565b61062a8383610982565b50505050565b6001600160a01b03811633146106595760405163334bd91960e11b815260040160405180910390fd5b6106638282610a11565b505050565b60408051610180810182525f80825260208201819052918101829052606081018290526080810182905260a0810182905260c0810182905260e081018290526101008101829052610120810182905261014081018290526101608101919091525f828152600260208181526040928390208351610180810185528154815260018201549281019290925280830154938201939093526003830154606082015260048301546001600160a01b0390811660808301526005840154811660a08301526006840154811660c0830152600784015490811660e0830152909291610100840191600160a01b900460ff169081111561076457610764610c08565b600281111561077557610775610c08565b81526008820154602082015260098201546040820152600a9091015460ff16151560609091015292915050565b5f918252602082815260408084206001600160a01b0393909316845291905290205460ff1690565b7f01f1b482e21ddb49f4dc6f994b01f151548858bd504322dbc949fcbe9f8e43936107f481610975565b6107fc610a7a565b5f831161083c5760405162461bcd60e51b815260206004820152600e60248201526d1a5b9d985b1a590b585b5bdd5b9d60921b60448201526064016103db565b5f84815260036020908152604080832085845290915290205460ff16156108995760405162461bcd60e51b8152602060048201526011602482015270185b1c9958591e4b5c1c9bd8d95cdcd959607a1b60448201526064016103db565b5f848152600260205260409020600a81015460ff166108eb5760405162461bcd60e51b815260206004820152600e60248201526d1b9bdd0b58dbdb999a59dd5c995960921b60448201526064016103db565b5f858152600360209081526040808320868452825291829020805460ff19166001179055815186815290810185905286917faafa352d052b6d090f3b3835b21c50a6b770712df23fdf8d6912a50b53a6af33910160405180910390a25061062a60018055565b5f8281526020819052604090206001015461096b81610975565b61062a8383610a11565b61097f8133610aa4565b50565b5f61098d83836107a2565b610a0a575f838152602081815260408083206001600160a01b03861684529091529020805460ff191660011790556109c23390565b6001600160a01b0316826001600160a01b0316847f2f8788117e7eff1d82e926ec794901d17c78024a50270940304540a733656f0d60405160405180910390a4506001610359565b505f610359565b5f610a1c83836107a2565b15610a0a575f838152602081815260408083206001600160a01b0386168085529252808320805460ff1916905551339286917ff6391f5c32d9c69d2a47ea670b442974b53935d1edc7fd64eb21e047a839171b9190a4506001610359565b600260015403610a9d57604051633ee5aeb560e01b815260040160405180910390fd5b6002600155565b610aae82826107a2565b610add5760405163e2517d3f60e01b81526001600160a01b0382166004820152602481018390526044016103db565b5050565b5f60208284031215610af1575f80fd5b81356001600160e01b031981168114610b08575f80fd5b9392505050565b5f60208284031215610b1f575f80fd5b5035919050565b6001600160a01b038116811461097f575f80fd5b5f805f805f805f805f806101408b8d031215610b54575f80fd5b8a35995060208b0135985060408b0135975060608b0135965060808b0135955060a08b0135610b8281610b26565b945060c08b0135610b9281610b26565b935060e08b0135610ba281610b26565b92506101008b0135610bb381610b26565b91506101208b013560038110610bc7575f80fd5b809150509295989b9194979a5092959850565b5f8060408385031215610beb575f80fd5b823591506020830135610bfd81610b26565b809150509250929050565b634e487b7160e01b5f52602160045260245ffd5b60038110610c3857634e487b7160e01b5f52602160045260245ffd5b9052565b5f61018082019050825182526020830151602083015260408301516040830152606083015160608301526080830151610c8060808401826001600160a01b03169052565b5060a0830151610c9b60a08401826001600160a01b03169052565b5060c0830151610cb660c08401826001600160a01b03169052565b5060e0830151610cd160e08401826001600160a01b03169052565b5061010080840151610ce582850182610c1c565b505061012083810151908301526101408084015190830152610160928301511515929091019190915290565b5f8060408385031215610d22575f80fd5b50508035926020909101359150565b8c8152602081018c9052604081018b9052606081018a90526001600160a01b03898116608083015288811660a083015287811660c0830152861660e08201526101808101610d83610100830187610c1c565b84610120830152836101408301528215156101608301529d9c50505050505050505050505050565b5f805f60608486031215610dbd575f80fd5b50508135936020830135935060409092013591905056fea26469706673582212205013459748331b220013eac0cb20e20cffbc21911db31bb629daf8c5eb3807f364736f6c63430008180033","linkReferences":{}},"methodIdentifiers":{"ALLOCATION_ESCROW_ROLE()":"5e721ea6","DEFAULT_ADMIN_ROLE()":"a217fddf","PROJECT_ADMIN_ROLE()":"41c04d5e","configureRepayment(uint256,uint256,uint256,uint256,uint256,address,address,address,address,uint8)":"2bd9a10d","getRepaymentStatus(uint256)":"500f0914","getRoleAdmin(bytes32)":"248a9ca3","grantRole(bytes32,address)":"2f2ff15d","hasRole(bytes32,address)":"91d14854","isConsiderationProcessed(uint256,bytes32)":"55078314","notifyProceeds(uint256,uint256,bytes32)":"c8b8236c","processedConsiderations(uint256,bytes32)":"b23d0979","renounceRole(bytes32,address)":"36568abe","repaymentConfigs(uint256)":"8ba57a5f","revokeRole(bytes32,address)":"d547741f","supportsInterface(bytes4)":"01ffc9a7"},"id":55}